{
  "_format": "hh-sol-artifact-1",
  "contractName": "SupplyChain",
  "sourceName": "contracts/SupplyChain.sol",
  "abi": [
    {
      "inputs": [],
      "stateMutability": "nonpayable",
      "type": "constructor"
    },
    {
      "anonymous": false,
      "inputs": [
        {
          "indexed": true,
          "internalType": "uint256",
          "name": "batchId",
          "type": "uint256"
        },
        {
          "indexed": true,
          "internalType": "address",
          "name": "actor",
          "type": "address"
        },
        {
          "indexed": false,
          "internalType": "string",
          "name": "action",
          "type": "string"
        },
        {
          "indexed": false,
          "internalType": "string",
          "name": "details",
          "type": "string"
        },
        {
          "indexed": false,
          "internalType": "uint256",
          "name": "timestamp",
          "type": "uint256"
        }
      ],
      "name": "AuditEntry",
      "type": "event"
    },
    {
      "anonymous": false,
      "inputs": [
        {
          "indexed": true,
          "internalType": "uint256",
          "name": "batchId",
          "type": "uint256"
        },
        {
          "indexed": true,
          "internalType": "address",
          "name": "creator",
          "type": "address"
        },
        {
          "indexed": false,
          "internalType": "string",
          "name": "batchType",
          "type": "string"
        },
        {
          "indexed": false,
          "internalType": "uint256",
          "name": "quantity",
          "type": "uint256"
        },
        {
          "indexed": false,
          "internalType": "uint256",
          "name": "timestamp",
          "type": "uint256"
        }
      ],
      "name": "BatchRegistered",
      "type": "event"
    },
    {
      "anonymous": false,
      "inputs": [
        {
          "indexed": true,
          "internalType": "uint256",
          "name": "batchId",
          "type": "uint256"
        },
        {
          "indexed": true,
          "internalType": "enum SupplyChain.BatchStatus",
          "name": "newStatus",
          "type": "uint8"
        },
        {
          "indexed": true,
          "internalType": "address",
          "name": "updatedBy",
          "type": "address"
        },
        {
          "indexed": false,
          "internalType": "uint256",
          "name": "timestamp",
          "type": "uint256"
        }
      ],
      "name": "BatchStatusUpdated",
      "type": "event"
    },
    {
      "anonymous": false,
      "inputs": [
        {
          "indexed": true,
          "internalType": "uint256",
          "name": "batchId",
          "type": "uint256"
        },
        {
          "indexed": false,
          "internalType": "string",
          "name": "certificateType",
          "type": "string"
        },
        {
          "indexed": true,
          "internalType": "string",
          "name": "ipfsHash",
          "type": "string"
        },
        {
          "indexed": true,
          "internalType": "address",
          "name": "issuedBy",
          "type": "address"
        },
        {
          "indexed": false,
          "internalType": "uint256",
          "name": "timestamp",
          "type": "uint256"
        }
      ],
      "name": "CertificateLinked",
      "type": "event"
    },
    {
      "anonymous": false,
      "inputs": [
        {
          "indexed": true,
          "internalType": "uint256",
          "name": "batchId",
          "type": "uint256"
        },
        {
          "indexed": false,
          "internalType": "string",
          "name": "ipfsHash",
          "type": "string"
        },
        {
          "indexed": true,
          "internalType": "address",
          "name": "revokedBy",
          "type": "address"
        },
        {
          "indexed": false,
          "internalType": "uint256",
          "name": "timestamp",
          "type": "uint256"
        }
      ],
      "name": "CertificateRevoked",
      "type": "event"
    },
    {
      "anonymous": false,
      "inputs": [
        {
          "indexed": true,
          "internalType": "uint256",
          "name": "batchId",
          "type": "uint256"
        },
        {
          "indexed": true,
          "internalType": "address",
          "name": "previousOwner",
          "type": "address"
        },
        {
          "indexed": true,
          "internalType": "address",
          "name": "newOwner",
          "type": "address"
        },
        {
          "indexed": false,
          "internalType": "uint256",
          "name": "timestamp",
          "type": "uint256"
        }
      ],
      "name": "OwnershipTransferred",
      "type": "event"
    },
    {
      "anonymous": false,
      "inputs": [
        {
          "indexed": true,
          "internalType": "address",
          "name": "participant",
          "type": "address"
        }
      ],
      "name": "ParticipantDeactivated",
      "type": "event"
    },
    {
      "anonymous": false,
      "inputs": [
        {
          "indexed": true,
          "internalType": "address",
          "name": "participant",
          "type": "address"
        },
        {
          "indexed": false,
          "internalType": "enum SupplyChain.ParticipantRole",
          "name": "role",
          "type": "uint8"
        },
        {
          "indexed": false,
          "internalType": "string",
          "name": "name",
          "type": "string"
        }
      ],
      "name": "ParticipantRegistered",
      "type": "event"
    },
    {
      "anonymous": false,
      "inputs": [
        {
          "indexed": true,
          "internalType": "uint256",
          "name": "requestId",
          "type": "uint256"
        },
        {
          "indexed": true,
          "internalType": "uint256",
          "name": "batchId",
          "type": "uint256"
        },
        {
          "indexed": true,
          "internalType": "address",
          "name": "from",
          "type": "address"
        },
        {
          "indexed": false,
          "internalType": "address",
          "name": "to",
          "type": "address"
        },
        {
          "indexed": false,
          "internalType": "uint256",
          "name": "timestamp",
          "type": "uint256"
        }
      ],
      "name": "TransferApproved",
      "type": "event"
    },
    {
      "anonymous": false,
      "inputs": [
        {
          "indexed": true,
          "internalType": "uint256",
          "name": "requestId",
          "type": "uint256"
        },
        {
          "indexed": true,
          "internalType": "uint256",
          "name": "batchId",
          "type": "uint256"
        },
        {
          "indexed": true,
          "internalType": "address",
          "name": "from",
          "type": "address"
        },
        {
          "indexed": false,
          "internalType": "address",
          "name": "to",
          "type": "address"
        },
        {
          "indexed": false,
          "internalType": "string",
          "name": "reason",
          "type": "string"
        },
        {
          "indexed": false,
          "internalType": "uint256",
          "name": "timestamp",
          "type": "uint256"
        }
      ],
      "name": "TransferRejected",
      "type": "event"
    },
    {
      "anonymous": false,
      "inputs": [
        {
          "indexed": true,
          "internalType": "uint256",
          "name": "requestId",
          "type": "uint256"
        },
        {
          "indexed": true,
          "internalType": "uint256",
          "name": "batchId",
          "type": "uint256"
        },
        {
          "indexed": true,
          "internalType": "address",
          "name": "from",
          "type": "address"
        },
        {
          "indexed": false,
          "internalType": "address",
          "name": "to",
          "type": "address"
        },
        {
          "indexed": false,
          "internalType": "string",
          "name": "reason",
          "type": "string"
        },
        {
          "indexed": false,
          "internalType": "uint256",
          "name": "timestamp",
          "type": "uint256"
        }
      ],
      "name": "TransferRequested",
      "type": "event"
    },
    {
      "inputs": [
        {
          "internalType": "uint256",
          "name": "requestId",
          "type": "uint256"
        }
      ],
      "name": "acceptTransfer",
      "outputs": [],
      "stateMutability": "nonpayable",
      "type": "function"
    },
    {
      "inputs": [
        {
          "internalType": "uint256",
          "name": "",
          "type": "uint256"
        }
      ],
      "name": "activePendingRequests",
      "outputs": [
        {
          "internalType": "uint256",
          "name": "",
          "type": "uint256"
        }
      ],
      "stateMutability": "view",
      "type": "function"
    },
    {
      "inputs": [
        {
          "internalType": "uint256",
          "name": "",
          "type": "uint256"
        },
        {
          "internalType": "uint256",
          "name": "",
          "type": "uint256"
        }
      ],
      "name": "batchAuditTrail",
      "outputs": [
        {
          "internalType": "uint256",
          "name": "batchId",
          "type": "uint256"
        },
        {
          "internalType": "address",
          "name": "actor",
          "type": "address"
        },
        {
          "internalType": "string",
          "name": "action",
          "type": "string"
        },
        {
          "internalType": "string",
          "name": "details",
          "type": "string"
        },
        {
          "internalType": "uint256",
          "name": "timestamp",
          "type": "uint256"
        },
        {
          "internalType": "string",
          "name": "locationData",
          "type": "string"
        }
      ],
      "stateMutability": "view",
      "type": "function"
    },
    {
      "inputs": [
        {
          "internalType": "uint256",
          "name": "",
          "type": "uint256"
        },
        {
          "internalType": "uint256",
          "name": "",
          "type": "uint256"
        }
      ],
      "name": "batchCertificates",
      "outputs": [
        {
          "internalType": "uint256",
          "name": "batchId",
          "type": "uint256"
        },
        {
          "internalType": "string",
          "name": "certificateType",
          "type": "string"
        },
        {
          "internalType": "string",
          "name": "ipfsHash",
          "type": "string"
        },
        {
          "internalType": "address",
          "name": "issuedBy",
          "type": "address"
        },
        {
          "internalType": "uint256",
          "name": "issuedAt",
          "type": "uint256"
        },
        {
          "internalType": "bool",
          "name": "isValid",
          "type": "bool"
        }
      ],
      "stateMutability": "view",
      "type": "function"
    },
    {
      "inputs": [
        {
          "internalType": "uint256",
          "name": "",
          "type": "uint256"
        }
      ],
      "name": "batches",
      "outputs": [
        {
          "internalType": "uint256",
          "name": "id",
          "type": "uint256"
        },
        {
          "internalType": "address",
          "name": "creator",
          "type": "address"
        },
        {
          "internalType": "address",
          "name": "currentOwner",
          "type": "address"
        },
        {
          "internalType": "address",
          "name": "pendingOwner",
          "type": "address"
        },
        {
          "internalType": "enum SupplyChain.BatchStatus",
          "name": "status",
          "type": "uint8"
        },
        {
          "internalType": "string",
          "name": "batchType",
          "type": "string"
        },
        {
          "internalType": "uint256",
          "name": "quantity",
          "type": "uint256"
        },
        {
          "internalType": "string",
          "name": "originLocation",
          "type": "string"
        },
        {
          "internalType": "string",
          "name": "metadataURI",
          "type": "string"
        },
        {
          "internalType": "uint256",
          "name": "createdAt",
          "type": "uint256"
        },
        {
          "internalType": "uint256",
          "name": "updatedAt",
          "type": "uint256"
        },
        {
          "internalType": "bool",
          "name": "exists",
          "type": "bool"
        }
      ],
      "stateMutability": "view",
      "type": "function"
    },
    {
      "inputs": [
        {
          "internalType": "uint256",
          "name": "requestId",
          "type": "uint256"
        }
      ],
      "name": "cancelTransfer",
      "outputs": [],
      "stateMutability": "nonpayable",
      "type": "function"
    },
    {
      "inputs": [],
      "name": "contractOwner",
      "outputs": [
        {
          "internalType": "address",
          "name": "",
          "type": "address"
        }
      ],
      "stateMutability": "view",
      "type": "function"
    },
    {
      "inputs": [
        {
          "internalType": "address",
          "name": "participant",
          "type": "address"
        }
      ],
      "name": "deactivateParticipant",
      "outputs": [],
      "stateMutability": "nonpayable",
      "type": "function"
    },
    {
      "inputs": [
        {
          "internalType": "uint256",
          "name": "batchId",
          "type": "uint256"
        }
      ],
      "name": "getActivePendingRequest",
      "outputs": [
        {
          "components": [
            {
              "internalType": "uint256",
              "name": "batchId",
              "type": "uint256"
            },
            {
              "internalType": "address",
              "name": "from",
              "type": "address"
            },
            {
              "internalType": "address",
              "name": "to",
              "type": "address"
            },
            {
              "internalType": "string",
              "name": "reason",
              "type": "string"
            },
            {
              "internalType": "string",
              "name": "transportDetails",
              "type": "string"
            },
            {
              "internalType": "uint256",
              "name": "requestedAt",
              "type": "uint256"
            },
            {
              "internalType": "bool",
              "name": "isActive",
              "type": "bool"
            }
          ],
          "internalType": "struct SupplyChain.TransferRequest",
          "name": "",
          "type": "tuple"
        }
      ],
      "stateMutability": "view",
      "type": "function"
    },
    {
      "inputs": [
        {
          "internalType": "uint256",
          "name": "batchId",
          "type": "uint256"
        }
      ],
      "name": "getBatchAuditTrail",
      "outputs": [
        {
          "components": [
            {
              "internalType": "uint256",
              "name": "batchId",
              "type": "uint256"
            },
            {
              "internalType": "address",
              "name": "actor",
              "type": "address"
            },
            {
              "internalType": "string",
              "name": "action",
              "type": "string"
            },
            {
              "internalType": "string",
              "name": "details",
              "type": "string"
            },
            {
              "internalType": "uint256",
              "name": "timestamp",
              "type": "uint256"
            },
            {
              "internalType": "string",
              "name": "locationData",
              "type": "string"
            }
          ],
          "internalType": "struct SupplyChain.AuditTrail[]",
          "name": "",
          "type": "tuple[]"
        }
      ],
      "stateMutability": "view",
      "type": "function"
    },
    {
      "inputs": [
        {
          "internalType": "uint256",
          "name": "batchId",
          "type": "uint256"
        }
      ],
      "name": "getBatchCertificates",
      "outputs": [
        {
          "components": [
            {
              "internalType": "uint256",
              "name": "batchId",
              "type": "uint256"
            },
            {
              "internalType": "string",
              "name": "certificateType",
              "type": "string"
            },
            {
              "internalType": "string",
              "name": "ipfsHash",
              "type": "string"
            },
            {
              "internalType": "address",
              "name": "issuedBy",
              "type": "address"
            },
            {
              "internalType": "uint256",
              "name": "issuedAt",
              "type": "uint256"
            },
            {
              "internalType": "bool",
              "name": "isValid",
              "type": "bool"
            }
          ],
          "internalType": "struct SupplyChain.Certificate[]",
          "name": "",
          "type": "tuple[]"
        }
      ],
      "stateMutability": "view",
      "type": "function"
    },
    {
      "inputs": [
        {
          "internalType": "uint256",
          "name": "batchId",
          "type": "uint256"
        }
      ],
      "name": "getBatchDetails",
      "outputs": [
        {
          "internalType": "uint256",
          "name": "id",
          "type": "uint256"
        },
        {
          "internalType": "address",
          "name": "creator",
          "type": "address"
        },
        {
          "internalType": "address",
          "name": "currentOwner",
          "type": "address"
        },
        {
          "internalType": "address",
          "name": "pendingOwner",
          "type": "address"
        },
        {
          "internalType": "enum SupplyChain.BatchStatus",
          "name": "status",
          "type": "uint8"
        },
        {
          "internalType": "string",
          "name": "batchType",
          "type": "string"
        },
        {
          "internalType": "uint256",
          "name": "quantity",
          "type": "uint256"
        },
        {
          "internalType": "string",
          "name": "originLocation",
          "type": "string"
        },
        {
          "internalType": "string",
          "name": "metadataURI",
          "type": "string"
        },
        {
          "internalType": "uint256",
          "name": "createdAt",
          "type": "uint256"
        },
        {
          "internalType": "uint256",
          "name": "updatedAt",
          "type": "uint256"
        }
      ],
      "stateMutability": "view",
      "type": "function"
    },
    {
      "inputs": [
        {
          "internalType": "address",
          "name": "owner",
          "type": "address"
        }
      ],
      "name": "getBatchesByOwner",
      "outputs": [
        {
          "internalType": "uint256[]",
          "name": "",
          "type": "uint256[]"
        }
      ],
      "stateMutability": "view",
      "type": "function"
    },
    {
      "inputs": [
        {
          "internalType": "uint256",
          "name": "batchId",
          "type": "uint256"
        }
      ],
      "name": "getOwnershipHistory",
      "outputs": [
        {
          "internalType": "address[]",
          "name": "",
          "type": "address[]"
        }
      ],
      "stateMutability": "view",
      "type": "function"
    },
    {
      "inputs": [],
      "name": "getTotalBatches",
      "outputs": [
        {
          "internalType": "uint256",
          "name": "",
          "type": "uint256"
        }
      ],
      "stateMutability": "view",
      "type": "function"
    },
    {
      "inputs": [
        {
          "internalType": "address",
          "name": "participant",
          "type": "address"
        }
      ],
      "name": "isValidParticipant",
      "outputs": [
        {
          "internalType": "bool",
          "name": "",
          "type": "bool"
        }
      ],
      "stateMutability": "view",
      "type": "function"
    },
    {
      "inputs": [
        {
          "internalType": "address",
          "name": "",
          "type": "address"
        },
        {
          "internalType": "uint256",
          "name": "",
          "type": "uint256"
        }
      ],
      "name": "ownerBatches",
      "outputs": [
        {
          "internalType": "uint256",
          "name": "",
          "type": "uint256"
        }
      ],
      "stateMutability": "view",
      "type": "function"
    },
    {
      "inputs": [
        {
          "internalType": "uint256",
          "name": "",
          "type": "uint256"
        },
        {
          "internalType": "uint256",
          "name": "",
          "type": "uint256"
        }
      ],
      "name": "ownershipHistory",
      "outputs": [
        {
          "internalType": "address",
          "name": "",
          "type": "address"
        }
      ],
      "stateMutability": "view",
      "type": "function"
    },
    {
      "inputs": [
        {
          "internalType": "address",
          "name": "",
          "type": "address"
        }
      ],
      "name": "participants",
      "outputs": [
        {
          "internalType": "address",
          "name": "participantAddress",
          "type": "address"
        },
        {
          "internalType": "enum SupplyChain.ParticipantRole",
          "name": "role",
          "type": "uint8"
        },
        {
          "internalType": "string",
          "name": "name",
          "type": "string"
        },
        {
          "internalType": "string",
          "name": "location",
          "type": "string"
        },
        {
          "internalType": "bool",
          "name": "isActive",
          "type": "bool"
        },
        {
          "internalType": "uint256",
          "name": "registeredAt",
          "type": "uint256"
        }
      ],
      "stateMutability": "view",
      "type": "function"
    },
    {
      "inputs": [
        {
          "internalType": "string",
          "name": "batchType",
          "type": "string"
        },
        {
          "internalType": "uint256",
          "name": "quantity",
          "type": "uint256"
        },
        {
          "internalType": "string",
          "name": "originLocation",
          "type": "string"
        },
        {
          "internalType": "string",
          "name": "metadataURI",
          "type": "string"
        }
      ],
      "name": "registerBatch",
      "outputs": [
        {
          "internalType": "uint256",
          "name": "batchId",
          "type": "uint256"
        }
      ],
      "stateMutability": "nonpayable",
      "type": "function"
    },
    {
      "inputs": [
        {
          "internalType": "address",
          "name": "participant",
          "type": "address"
        },
        {
          "internalType": "enum SupplyChain.ParticipantRole",
          "name": "role",
          "type": "uint8"
        },
        {
          "internalType": "string",
          "name": "name",
          "type": "string"
        },
        {
          "internalType": "string",
          "name": "location",
          "type": "string"
        }
      ],
      "name": "registerParticipant",
      "outputs": [],
      "stateMutability": "nonpayable",
      "type": "function"
    },
    {
      "inputs": [
        {
          "internalType": "uint256",
          "name": "requestId",
          "type": "uint256"
        },
        {
          "internalType": "string",
          "name": "rejectionReason",
          "type": "string"
        }
      ],
      "name": "rejectTransfer",
      "outputs": [],
      "stateMutability": "nonpayable",
      "type": "function"
    },
    {
      "inputs": [
        {
          "internalType": "uint256",
          "name": "batchId",
          "type": "uint256"
        },
        {
          "internalType": "address",
          "name": "newOwner",
          "type": "address"
        },
        {
          "internalType": "string",
          "name": "reason",
          "type": "string"
        },
        {
          "internalType": "string",
          "name": "transportDetails",
          "type": "string"
        }
      ],
      "name": "requestTransfer",
      "outputs": [
        {
          "internalType": "uint256",
          "name": "requestId",
          "type": "uint256"
        }
      ],
      "stateMutability": "nonpayable",
      "type": "function"
    },
    {
      "inputs": [
        {
          "internalType": "uint256",
          "name": "",
          "type": "uint256"
        }
      ],
      "name": "transferRequests",
      "outputs": [
        {
          "internalType": "uint256",
          "name": "batchId",
          "type": "uint256"
        },
        {
          "internalType": "address",
          "name": "from",
          "type": "address"
        },
        {
          "internalType": "address",
          "name": "to",
          "type": "address"
        },
        {
          "internalType": "string",
          "name": "reason",
          "type": "string"
        },
        {
          "internalType": "string",
          "name": "transportDetails",
          "type": "string"
        },
        {
          "internalType": "uint256",
          "name": "requestedAt",
          "type": "uint256"
        },
        {
          "internalType": "bool",
          "name": "isActive",
          "type": "bool"
        }
      ],
      "stateMutability": "view",
      "type": "function"
    },
    {
      "inputs": [
        {
          "internalType": "uint256",
          "name": "batchId",
          "type": "uint256"
        },
        {
          "internalType": "enum SupplyChain.BatchStatus",
          "name": "newStatus",
          "type": "uint8"
        },
        {
          "internalType": "string",
          "name": "details",
          "type": "string"
        },
        {
          "internalType": "string",
          "name": "locationData",
          "type": "string"
        }
      ],
      "name": "updateStatus",
      "outputs": [],
      "stateMutability": "nonpayable",
      "type": "function"
    },
    {
      "inputs": [
        {
          "internalType": "string",
          "name": "",
          "type": "string"
        }
      ],
      "name": "usedCertificateHashes",
      "outputs": [
        {
          "internalType": "bool",
          "name": "",
          "type": "bool"
        }
      ],
      "stateMutability": "view",
      "type": "function"
    }
  ],
  "bytecode": "0x608060405260016009556001600a5534801561001a57600080fd5b50600b8054336001600160a01b031991821681179092556040805160c0810182528381526004602080830191825283518085018552601681527f436f6e74726163742041646d696e6973747261746f7200000000000000000000818301528385015283518085018552600681526553797374656d60d01b8183015260608401526001608084018190524260a08501526000968752905291909320835181549384166001600160a01b03909116908117825591519092909183916001600160a81b03191617600160a01b8360058111156100f5576100f5610186565b02179055506040820151600182019061010e908261023b565b5060608201516002820190610123908261023b565b50608082015160038201805460ff191691151591909117905560a09091015160049182015560405133917fe3564c470dc79d88d220de1a64bc335ec0a928450ce631293691bba84dd9a6119161017991906102f9565b60405180910390a2610358565b634e487b7160e01b600052602160045260246000fd5b634e487b7160e01b600052604160045260246000fd5b600181811c908216806101c657607f821691505b6020821081036101e657634e487b7160e01b600052602260045260246000fd5b50919050565b601f82111561023657806000526020600020601f840160051c810160208510156102135750805b601f840160051c820191505b81811015610233576000815560010161021f565b50505b505050565b81516001600160401b038111156102545761025461019c565b6102688161026284546101b2565b846101ec565b6020601f82116001811461029c57600083156102845750848201515b600019600385901b1c1916600184901b178455610233565b600084815260208120601f198516915b828110156102cc57878501518255602094850194600190920191016102ac565b50848210156102ea5786840151600019600387901b60f8161c191681555b50505050600190811b01905550565b60006006831061031957634e487b7160e01b600052602160045260246000fd5b509081526040602082018190526016908201527f436f6e74726163742041646d696e6973747261746f7200000000000000000000606082015260800190565b614e2a806103676000396000f3fe608060405234801561001057600080fd5b506004361061018d5760003560e01c80635e9b3ac1116100de578063c37d46f911610097578063de97b81c11610071578063de97b81c14610453578063e3da5f0314610466578063e561dddc1461048b578063f1dbaccb1461049357600080fd5b8063c37d46f9146103e6578063c9cf2adc14610415578063ce606ee01461044057600080fd5b80635e9b3ac11461033857806364a696c61461034b5780636b43c9e41461035e57806373247a03146103715780639d47dcc014610391578063b32c4d8d146103bb57600080fd5b8063274fae7c1161014b578063416dd31a11610125578063416dd31a146102d257806348f10184146102f2578063590784731461030557806359caecb51461032557600080fd5b8063274fae7c1461026c57806329e5473f14610281578063383cb8a41461029457600080fd5b8062528eb41461019257806303486c40146101bb57806309e69ede146101e15780630e98be71146102065780630efb58891461022b57806311ae0b8f14610259575b600080fd5b6101a56101a0366004613cf5565b6104b3565b6040516101b29190613d5e565b60405180910390f35b6101ce6101c9366004613cf5565b6106ba565b6040516101b29796959493929190613e1d565b6101f46101ef366004613e99565b610817565b6040516101b296959493929190613ee5565b610219610214366004613f3c565b610971565b6040516101b296959493929190613f5e565b61024b610239366004613cf5565b60086020526000908152604090205481565b6040519081526020016101b2565b61024b610267366004613ffc565b610ae9565b61027f61027a366004613cf5565b61106d565b005b61027f61028f3660046140ac565b611504565b6102c26102a2366004614157565b805160208183018101805160048252928201919093012091525460ff1681565b60405190151581526020016101b2565b6102e56102e0366004613e99565b61190b565b6040516101b29190614210565b61027f610300366004614253565b611977565b610318610313366004613cf5565b611ca3565b6040516101b29190614289565b61027f610333366004613cf5565b611efa565b61024b610346366004614314565b612165565b61024b61035936600461433e565b612196565b61027f61036c366004614367565b612883565b61038461037f366004613cf5565b612b7e565b6040516101b291906143b3565b6103a461039f366004613cf5565b612def565b6040516101b29b9a99989796959493929190614483565b6103ce6103c9366004613cf5565b61306e565b6040516101b29c9b9a99989796959493929190614514565b6102c26103f4366004613e99565b6001600160a01b031660009081526001602052604090206003015460ff1690565b610428610423366004613f3c565b61327c565b6040516001600160a01b0390911681526020016101b2565b600b54610428906001600160a01b031681565b61027f610461366004613e99565b6132b4565b610479610474366004613f3c565b61338e565b6040516101b2969594939291906145b9565b61024b613586565b6104a66104a1366004613cf5565b61359c565b6040516101b2919061461c565b6000818152602081905260409020600a0154606090829060ff166104f25760405162461bcd60e51b81526004016104e99061465d565b60405180910390fd5b600083815260036020908152604080832080548251818502810185019093528083529193909284015b828210156106ad57838290600052602060002090600602016040518060c0016040529081600082015481526020016001820180546105589061468b565b80601f01602080910402602001604051908101604052809291908181526020018280546105849061468b565b80156105d15780601f106105a6576101008083540402835291602001916105d1565b820191906000526020600020905b8154815290600101906020018083116105b457829003601f168201915b505050505081526020016002820180546105ea9061468b565b80601f01602080910402602001604051908101604052809291908181526020018280546106169061468b565b80156106635780601f1061063857610100808354040283529160200191610663565b820191906000526020600020905b81548152906001019060200180831161064657829003601f168201915b505050918352505060038201546001600160a01b03166020808301919091526004830154604083015260059092015460ff161515606090910152908252600192909201910161051b565b5050505091505b50919050565b6002602081905260009182526040909120805460018201549282015460038301805492946001600160a01b03908116949216926106f69061468b565b80601f01602080910402602001604051908101604052809291908181526020018280546107229061468b565b801561076f5780601f106107445761010080835404028352916020019161076f565b820191906000526020600020905b81548152906001019060200180831161075257829003601f168201915b5050505050908060040180546107849061468b565b80601f01602080910402602001604051908101604052809291908181526020018280546107b09061468b565b80156107fd5780601f106107d2576101008083540402835291602001916107fd565b820191906000526020600020905b8154815290600101906020018083116107e057829003601f168201915b50505050600583015460069093015491929160ff16905087565b6001602081905260009182526040909120805491810180546001600160a01b03841693600160a01b900460ff169291906108509061468b565b80601f016020809104026020016040519081016040528092919081815260200182805461087c9061468b565b80156108c95780601f1061089e576101008083540402835291602001916108c9565b820191906000526020600020905b8154815290600101906020018083116108ac57829003601f168201915b5050505050908060020180546108de9061468b565b80601f016020809104026020016040519081016040528092919081815260200182805461090a9061468b565b80156109575780601f1061092c57610100808354040283529160200191610957565b820191906000526020600020905b81548152906001019060200180831161093a57829003601f168201915b505050506003830154600490930154919260ff1691905086565b6003602052816000526040600020818154811061098d57600080fd5b9060005260206000209060060201600091509150508060000154908060010180546109b79061468b565b80601f01602080910402602001604051908101604052809291908181526020018280546109e39061468b565b8015610a305780601f10610a0557610100808354040283529160200191610a30565b820191906000526020600020905b815481529060010190602001808311610a1357829003601f168201915b505050505090806002018054610a459061468b565b80601f0160208091040260200160405190810160405280929190818152602001828054610a719061468b565b8015610abe5780601f10610a9357610100808354040283529160200191610abe565b820191906000526020600020905b815481529060010190602001808311610aa157829003601f168201915b505050506003830154600484015460059094015492936001600160a01b039091169290915060ff1686565b3360009081526001602052604081206003015460ff16610b1b5760405162461bcd60e51b81526004016104e9906146bf565b86610b685760405162461bcd60e51b815260206004820152601a60248201527f426174636820747970652063616e6e6f7420626520656d70747900000000000060448201526064016104e9565b60008611610bc35760405162461bcd60e51b815260206004820152602260248201527f5175616e74697479206d7573742062652067726561746572207468616e207a65604482015261726f60f01b60648201526084016104e9565b83610c105760405162461bcd60e51b815260206004820152601f60248201527f4f726967696e206c6f636174696f6e2063616e6e6f7420626520656d7074790060448201526064016104e9565b60098054906000610c208361471b565b909155506040805161018081018252828152336020820181905291810191909152600060608201819052919250906080820190815260200189898080601f016020809104026020016040519081016040528093929190818152602001838380828437600092019190915250505090825250602080820189905260408051601f89018390048302810183018252888152920191908890889081908401838280828437600092019190915250505090825250604080516020601f870181900481028201810190925285815291810191908690869081908401838280828437600092018290525093855250504260208085018290526040808601929092526001606095860181905287855284825293829020865181559086015193810180546001600160a01b039586166001600160a01b0319918216179091559186015160028201805491861691841691909117905593850151600385018054919094169181168217845560808601519392506001600160a81b03191617600160a01b836006811115610dac57610dac613ebb565b021790555060a08201516004820190610dc59082614780565b5060c0820151600582015560e08201516006820190610de49082614780565b506101008201516007820190610dfa9082614780565b506101208201516008820155610140820151600982015561016090910151600a909101805460ff19169115159190911790556000818152600660209081526040808320805460018181018355918552838520018054336001600160a01b03199091168117909155808552600784528285208054928301815585528385209091018590558484526005835292819020815160c0810183528581528084019490945281518083018352600d81526c10905510d217d0d49150551151609a1b938101939093529083019190915290606081018a8a610ed48b61363d565b604051602001610ee69392919061483f565b604051602081830303815290604052815260200142815260200187878080601f016020809104026020016040519081016040528093929190818152602001838380828437600092018290525093909452505083546001808201865594825260209182902084516006909202019081559083015193810180546001600160a01b0319166001600160a01b03909516949094179093555060408101519091906002820190610f929082614780565b5060608201516003820190610fa79082614780565b506080820151600482015560a08201516005820190610fc69082614780565b505050336001600160a01b0316817fddfb2105d99dc623fe7d3f9f277c4f458e4db5b85f6e688a080256f360d285e48a8a8a4260405161100994939291906148cc565b60405180910390a3336001600160a01b031681600080516020614dd58339815191528a8a60405160200161103e9291906148f3565b60408051601f198184030181529082905261105a91429061491e565b60405180910390a3979650505050505050565b600081815260026020526040902060060154819060ff166110a05760405162461bcd60e51b81526004016104e990614964565b600081815260026020819052604090912001546001600160a01b031633146110da5760405162461bcd60e51b81526004016104e99061499b565b3360009081526001602052604090206003015460ff1661110c5760405162461bcd60e51b81526004016104e9906146bf565b60008281526002602090815260408083208054845291839052909120600a81015460ff1661114c5760405162461bcd60e51b81526004016104e99061465d565b600182015460028201546001600160a01b039081169116146111b05760405162461bcd60e51b815260206004820152601a60248201527f4f726967696e616c206f776e657220686173206368616e67656400000000000060448201526064016104e9565b600282015460038201546001600160a01b039081169116146112145760405162461bcd60e51b815260206004820152601960248201527f50656e64696e67206f776e657220686173206368616e6765640000000000000060448201526064016104e9565b60028082018054845492850180546001600160a01b03198084166001600160a01b03928316179094556003860180548516905542600987015560008581526006602081815260408084208654815460018181018455928752848720018054909a1690871617909855945484168352600781528483208054978801815583528083209096018790558801805460ff191690558581526008855282812081905560058552829020825160c08101845286815233818701528351808501855260118152701514905394d1915497d050d0d154151151607a1b96810196909652928301949094529091169291906060810161130a85613746565b6002880154611321906001600160a01b0316613746565b6040516020016113329291906149e1565b60408051808303601f19018152918152908252426020808401919091528151808201835260008082529383015284546001808201875595845292819020845160069094020192835583015193820180546001600160a01b0319166001600160a01b03909516949094179093559181015190919060028201906113b49082614780565b50606082015160038201906113c99082614780565b506080820151600482015560a082015160058201906113e89082614780565b5050506002840154604080516001600160a01b03928316815242602082015291841691839189917f798ceef017f7abdb4cb91bdada993161919466973c34181364d44c143b8aa422910160405180910390a460028401546040514281526001600160a01b039182169184169083907f06f354ec7b9d2ca4e029f73ccb9119943a48c3295704dd66ca8beda0c7bae33f9060200160405180910390a4604080516060808252601190820152701514905394d1915497d050d0d154151151607a1b608082015260a0602082018190526015908201527413dddb995c9cda1a5c081d1c985b9cd9995c9c9959605a1b60c08201524281830152905133918391600080516020614dd58339815191529181900360e00190a3505050505050565b6000868152602081905260409020600a0154869060ff166115375760405162461bcd60e51b81526004016104e99061465d565b60008781526020819052604090206002015487906001600160a01b031633148061158b5750600433600090815260016020526040902054600160a01b900460ff16600581111561158957611589613ebb565b145b6115e35760405162461bcd60e51b815260206004820152602360248201527f4e6f7420617574686f72697a656420746f2061636365737320746869732062616044820152620e8c6d60eb1b60648201526084016104e9565b60008881526020819052604090206003810154600160a01b900460ff1661160a818a613927565b6116565760405162461bcd60e51b815260206004820152601960248201527f496e76616c696420737461747573207472616e736974696f6e0000000000000060448201526064016104e9565b6003820180548a919060ff60a01b1916600160a01b83600681111561167d5761167d613ebb565b02179055504260098301556000876116c65761169882613a05565b6116a18b613a05565b6040516020016116b2929190614a49565b6040516020818303038152906040526116fd565b88888080601f0160208091040260200160405190810160405280939291908181526020018383808284376000920191909152505050505b60008c815260056020908152604091829020825160c0810184528f8152338184015283518085018552600e81526d14d510551554d7d554111055115160921b8185015281850152606081018590524260808201528351601f8c018490048402810184019094528a8452939450929160a08301918b908b9081908401838280828437600092018290525093909452505083546001808201865594825260209182902084516006909202019081559083015193810180546001600160a01b0319166001600160a01b039095169490941790935550604081015190919060028201906117e69082614780565b50606082015160038201906117fb9082614780565b506080820151600482015560a0820151600582019061181a9082614780565b505050336001600160a01b03168a600681111561183957611839613ebb565b8c7ff240b0f1c1727be3f30c3f3a006e240add82a15a50d426127694d96e5a26a4034260405161186b91815260200190565b60405180910390a4336001600160a01b03168b600080516020614dd5833981519152834260405161189d929190614aa8565b60405180910390a360058a60068111156118b9576118b9613ebb565b036118fe576118fe8b8a8a8080601f016020809104026020016040519081016040528093929190818152602001838380828437600092019190915250613bdb92505050565b5050505050505050505050565b6001600160a01b03811660009081526007602090815260409182902080548351818402810184019094528084526060939283018282801561196b57602002820191906000526020600020905b815481526020019060010190808311611957575b50505050509050919050565b600b546001600160a01b031633146119a15760405162461bcd60e51b81526004016104e990614ae0565b6001600160a01b0386166119f75760405162461bcd60e51b815260206004820152601b60248201527f496e76616c6964207061727469636970616e742061646472657373000000000060448201526064016104e9565b6000856005811115611a0b57611a0b613ebb565b03611a475760405162461bcd60e51b815260206004820152600c60248201526b496e76616c696420726f6c6560a01b60448201526064016104e9565b82611a8b5760405162461bcd60e51b81526020600482015260146024820152734e616d652063616e6e6f7420626520656d70747960601b60448201526064016104e9565b6001600160a01b03861660009081526001602052604090206003015460ff1615611af75760405162461bcd60e51b815260206004820152601e60248201527f5061727469636970616e7420616c72656164792072656769737465726564000060448201526064016104e9565b6040518060c00160405280876001600160a01b03168152602001866005811115611b2357611b23613ebb565b815260200185858080601f016020809104026020016040519081016040528093929190818152602001838380828437600092019190915250505090825250604080516020601f8601819004810282018101909252848152918101919085908590819084018382808284376000920182905250938552505060016020808501829052426040958601526001600160a01b03808d168552918152939092208451815493166001600160a01b031984168117825593850151909390928492506001600160a81b03191617600160a01b836005811115611c0157611c01613ebb565b021790555060408201516001820190611c1a9082614780565b5060608201516002820190611c2f9082614780565b50608082015160038201805460ff191691151591909117905560a0909101516004909101556040516001600160a01b038716907fe3564c470dc79d88d220de1a64bc335ec0a928450ce631293691bba84dd9a61190611c9390889088908890614b2b565b60405180910390a2505050505050565b6040805160e081018252600080825260208083018290528284018290526060808401819052608084015260a0830182905260c0830182905284825281905291909120600a0154829060ff16611d0a5760405162461bcd60e51b81526004016104e99061465d565b60008381526008602052604081205490819003611d695760405162461bcd60e51b815260206004820152601960248201527f4e6f206163746976652070656e64696e6720726571756573740000000000000060448201526064016104e9565b600081815260026020818152604092839020835160e0810185528154815260018201546001600160a01b03908116938201939093529281015490911692820192909252600382018054919291606084019190611dc49061468b565b80601f0160208091040260200160405190810160405280929190818152602001828054611df09061468b565b8015611e3d5780601f10611e1257610100808354040283529160200191611e3d565b820191906000526020600020905b815481529060010190602001808311611e2057829003601f168201915b50505050508152602001600482018054611e569061468b565b80601f0160208091040260200160405190810160405280929190818152602001828054611e829061468b565b8015611ecf5780601f10611ea457610100808354040283529160200191611ecf565b820191906000526020600020905b815481529060010190602001808311611eb257829003601f168201915b50505091835250506005820154602082015260069091015460ff161515604090910152949350505050565b6000818152600260205260409020600681015460ff16611f2c5760405162461bcd60e51b81526004016104e990614964565b60018101546001600160a01b03163314611f9b5760405162461bcd60e51b815260206004820152602a60248201527f4f6e6c7920746865207265717565737465722063616e2063616e63656c20746860448201526932903a3930b739b332b960b11b60648201526084016104e9565b80546000818152602081815260408083206003810180546001600160a01b031916905542600982015560068601805460ff19169055600883528184208490556005835292819020815160c08101835285815233818501528251808401845260128152711514905394d1915497d0d05390d15313115160721b8186015281840152825160608181019094526027808252959695929491938401929091614dae908301398152426020808301919091526040805180830182526000808252938201528454600180820187559584529282902084516006909402019283559083015193820180546001600160a01b0319166001600160a01b03909516949094179093559181015190919060028201906120b19082614780565b50606082015160038201906120c69082614780565b506080820151600482015560a082015160058201906120e59082614780565b50506040805160608082526012908201819052711514905394d1915497d0d05390d15313115160721b608083015260a06020830181905282015271151c985b9cd9995c8818d85b98d95b1b195960721b60c0820152428183015290513392508391600080516020614dd5833981519152919081900360e00190a350505050565b6007602052816000526040600020818154811061218157600080fd5b90600052602060002001600091509150505481565b6000868152602081905260408120600a0154879060ff166121c95760405162461bcd60e51b81526004016104e99061465d565b60008881526020819052604090206002015488906001600160a01b031633146122345760405162461bcd60e51b815260206004820152601b60248201527f4e6f74207468652063757272656e74206261746368206f776e6572000000000060448201526064016104e9565b3360009081526001602052604090206003015460ff166122665760405162461bcd60e51b81526004016104e9906146bf565b6001600160a01b0388166122bc5760405162461bcd60e51b815260206004820152601960248201527f496e76616c6964206e6577206f776e657220616464726573730000000000000060448201526064016104e9565b336001600160a01b038916036123145760405162461bcd60e51b815260206004820152601b60248201527f43616e6e6f74207472616e7366657220746f20796f757273656c66000000000060448201526064016104e9565b6001600160a01b03881660009081526001602052604090206003015460ff166123915760405162461bcd60e51b815260206004820152602960248201527f4e6577206f776e6572206973206e6f74206120726567697374657265642070616044820152681c9d1a58da5c185b9d60ba1b60648201526084016104e9565b600089815260086020526040902054156124055760405162461bcd60e51b815260206004820152602f60248201527f5472616e73666572207265717565737420616c72656164792070656e64696e6760448201526e040ccdee440e8d0d2e640c4c2e8c6d608b1b60648201526084016104e9565b856124525760405162461bcd60e51b815260206004820152601f60248201527f5472616e7366657220726561736f6e2063616e6e6f7420626520656d7074790060448201526064016104e9565b600089815260208190526040902060056003820154600160a01b900460ff16600681111561248257612482613ebb565b141580156124b0575060066003820154600160a01b900460ff1660068111156124ad576124ad613ebb565b14155b6125115760405162461bcd60e51b815260206004820152602c60248201527f43616e6e6f74207472616e736665722072656a6563746564206f7220636f6e7360448201526b756d6564206261746368657360a01b60648201526084016104e9565b600a80549060006125218361471b565b9190505593506040518060e001604052808b8152602001336001600160a01b031681526020018a6001600160a01b0316815260200189898080601f016020809104026020016040519081016040528093929190818152602001838380828437600092019190915250505090825250604080516020601f8a0181900481028201810190925288815291810191908990899081908401838280828437600092018290525093855250504260208085019190915260016040948501819052898452600280835293859020865181559186015190820180546001600160a01b03199081166001600160a01b03938416179091559486015193820180549095169316929092179092556060830151909150600382019061263c9082614780565b50608082015160048201906126519082614780565b5060a082015160058281019190915560c0928301516006909201805460ff1916921515929092179091556003830180546001600160a01b0319166001600160a01b038d1617905542600984015560008c815260086020908152604080832089905592815290829020825193840183528d845233848301528251808401845260128152711514905394d1915497d49154555154d5115160721b928101929092529183015290606081016127028c613746565b8b8b60405160200161271693929190614b55565b604051602081830303815290604052815260200142815260200188888080601f016020809104026020016040519081016040528093929190818152602001838380828437600092018290525093909452505083546001808201865594825260209182902084516006909202019081559083015193810180546001600160a01b0319166001600160a01b039095169490941790935550604081015190919060028201906127c29082614780565b50606082015160038201906127d79082614780565b506080820151600482015560a082015160058201906127f69082614780565b505050336001600160a01b03168a857f1d83ee25602fc00704f24231d78318737a7871f05bc7f72246a61885e86687948c8c8c4260405161283a9493929190614bb7565b60405180910390a4336001600160a01b03168a600080516020614dd58339815191528a8a4260405161286e93929190614bed565b60405180910390a35050509695505050505050565b600083815260026020526040902060060154839060ff166128b65760405162461bcd60e51b81526004016104e990614964565b600081815260026020819052604090912001546001600160a01b031633146128f05760405162461bcd60e51b81526004016104e99061499b565b3360009081526001602052604090206003015460ff166129225760405162461bcd60e51b81526004016104e9906146bf565b600084815260026020908152604080832080548452918390529091208361298b5760405162461bcd60e51b815260206004820181905260248201527f52656a656374696f6e20726561736f6e2063616e6e6f7420626520656d70747960448201526064016104e9565b81546003820180546001600160a01b031916905542600983015560068301805460ff1916905560008181526008602090815260408083208390556005825291829020825160c081018452848152338184018190528451808601865260118152701514905394d1915497d491529150d51151607a1b9481019490945293810192909252916060820190612a1c90613746565b8989604051602001612a3093929190614c3a565b60408051808303601f19018152918152908252426020808401919091528151808201835260008082529383015284546001808201875595845292819020845160069094020192835583015193820180546001600160a01b0319166001600160a01b0390951694909417909355918101519091906002820190612ab29082614780565b5060608201516003820190612ac79082614780565b506080820151600482015560a08201516005820190612ae69082614780565b505050600183015460028401546040516001600160a01b039283169284928b927ff13db4e24951bcf957c8e147d0946910916279dd1ae6206c56fe414de48c7de892612b399216908c908c904290614bb7565b60405180910390a4336001600160a01b031681600080516020614dd5833981519152888842604051612b6d93929190614c9b565b60405180910390a350505050505050565b6000818152602081905260409020600a0154606090829060ff16612bb45760405162461bcd60e51b81526004016104e99061465d565b600083815260056020908152604080832080548251818502810185019093528083529193909284015b828210156106ad5760008481526020908190206040805160c081018252600686029092018054835260018101546001600160a01b03169383019390935260028301805492939291840191612c309061468b565b80601f0160208091040260200160405190810160405280929190818152602001828054612c5c9061468b565b8015612ca95780601f10612c7e57610100808354040283529160200191612ca9565b820191906000526020600020905b815481529060010190602001808311612c8c57829003601f168201915b50505050508152602001600382018054612cc29061468b565b80601f0160208091040260200160405190810160405280929190818152602001828054612cee9061468b565b8015612d3b5780601f10612d1057610100808354040283529160200191612d3b565b820191906000526020600020905b815481529060010190602001808311612d1e57829003601f168201915b5050505050815260200160048201548152602001600582018054612d5e9061468b565b80601f0160208091040260200160405190810160405280929190818152602001828054612d8a9061468b565b8015612dd75780601f10612dac57610100808354040283529160200191612dd7565b820191906000526020600020905b815481529060010190602001808311612dba57829003601f168201915b50505050508152505081526020019060010190612bdd565b6000806000806000606060006060806000808b600080828152602001908152602001600020600a0160009054906101000a900460ff16612e415760405162461bcd60e51b81526004016104e99061465d565b60008d815260208190526040902080546001820154600283015460038401546005850154600886015460098701546004880180546001600160a01b039788169796871696861695600160a01b900460ff16949193919260068b019260078c01929091908690612eaf9061468b565b80601f0160208091040260200160405190810160405280929190818152602001828054612edb9061468b565b8015612f285780601f10612efd57610100808354040283529160200191612f28565b820191906000526020600020905b815481529060010190602001808311612f0b57829003601f168201915b50505050509550838054612f3b9061468b565b80601f0160208091040260200160405190810160405280929190818152602001828054612f679061468b565b8015612fb45780601f10612f8957610100808354040283529160200191612fb4565b820191906000526020600020905b815481529060010190602001808311612f9757829003601f168201915b50505050509350828054612fc79061468b565b80601f0160208091040260200160405190810160405280929190818152602001828054612ff39061468b565b80156130405780601f1061301557610100808354040283529160200191613040565b820191906000526020600020905b81548152906001019060200180831161302357829003601f168201915b505050505092509c509c509c509c509c509c509c509c509c509c509c50505091939597999b90929496989a50565b6000602081905290815260409020805460018201546002830154600384015460048501805494956001600160a01b039485169593851694831693600160a01b90930460ff16929091906130c09061468b565b80601f01602080910402602001604051908101604052809291908181526020018280546130ec9061468b565b80156131395780601f1061310e57610100808354040283529160200191613139565b820191906000526020600020905b81548152906001019060200180831161311c57829003601f168201915b5050505050908060050154908060060180546131549061468b565b80601f01602080910402602001604051908101604052809291908181526020018280546131809061468b565b80156131cd5780601f106131a2576101008083540402835291602001916131cd565b820191906000526020600020905b8154815290600101906020018083116131b057829003601f168201915b5050505050908060070180546131e29061468b565b80601f016020809104026020016040519081016040528092919081815260200182805461320e9061468b565b801561325b5780601f106132305761010080835404028352916020019161325b565b820191906000526020600020905b81548152906001019060200180831161323e57829003601f168201915b5050505060088301546009840154600a909401549293909290915060ff168c565b6006602052816000526040600020818154811061329857600080fd5b6000918252602090912001546001600160a01b03169150829050565b600b546001600160a01b031633146132de5760405162461bcd60e51b81526004016104e990614ae0565b6001600160a01b03811660009081526001602052604090206003015460ff166133425760405162461bcd60e51b81526020600482015260166024820152755061727469636970616e74206e6f742061637469766560501b60448201526064016104e9565b6001600160a01b038116600081815260016020526040808220600301805460ff19169055517fb360dc71519dbfb9b9a78951735305a652a439bb4cd8884a08a8968d816d72fa9190a250565b600560205281600052604060002081815481106133aa57600080fd5b60009182526020909120600690910201805460018201546002830180549295506001600160a01b039091169350906133e19061468b565b80601f016020809104026020016040519081016040528092919081815260200182805461340d9061468b565b801561345a5780601f1061342f5761010080835404028352916020019161345a565b820191906000526020600020905b81548152906001019060200180831161343d57829003601f168201915b50505050509080600301805461346f9061468b565b80601f016020809104026020016040519081016040528092919081815260200182805461349b9061468b565b80156134e85780601f106134bd576101008083540402835291602001916134e8565b820191906000526020600020905b8154815290600101906020018083116134cb57829003601f168201915b5050505050908060040154908060050180546135039061468b565b80601f016020809104026020016040519081016040528092919081815260200182805461352f9061468b565b801561357c5780601f106135515761010080835404028352916020019161357c565b820191906000526020600020905b81548152906001019060200180831161355f57829003601f168201915b5050505050905086565b600060016009546135979190614cd7565b905090565b6000818152602081905260409020600a0154606090829060ff166135d25760405162461bcd60e51b81526004016104e99061465d565b6000838152600660209081526040918290208054835181840281018401909452808452909183018282801561363057602002820191906000526020600020905b81546001600160a01b03168152600190910190602001808311613612575b5050505050915050919050565b6060816000036136645750506040805180820190915260018152600360fc1b602082015290565b8160005b811561368e57806136788161471b565b91506136879050600a83614d00565b9150613668565b60008167ffffffffffffffff8111156136a9576136a9614141565b6040519080825280601f01601f1916602001820160405280156136d3576020820181803683370190505b5090505b841561373e576136e8600183614cd7565b91506136f5600a86614d14565b613700906030614d28565b60f81b81838151811061371557613715614d3b565b60200101906001600160f81b031916908160001a905350613737600a86614d00565b94506136d7565b949350505050565b604080518082018252601081526f181899199a1a9b1b9c1cb0b131b232b360811b60208201528151602a80825260608281019094526001600160a01b0385169291600091602082018180368337019050509050600360fc1b816000815181106137b1576137b1614d3b565b60200101906001600160f81b031916908160001a905350600f60fb1b816001815181106137e0576137e0614d3b565b60200101906001600160f81b031916908160001a90535060005b601481101561391e578260048561381284600c614d28565b6020811061382257613822614d3b565b1a60f81b6001600160f81b031916901c60f81c60ff168151811061384857613848614d3b565b01602001516001600160f81b03191682613863836002614d51565b61386e906002614d28565b8151811061387e5761387e614d3b565b60200101906001600160f81b031916908160001a90535082846138a283600c614d28565b602081106138b2576138b2614d3b565b825191901a600f169081106138c9576138c9614d3b565b01602001516001600160f81b031916826138e4836002614d51565b6138ef906003614d28565b815181106138ff576138ff614d3b565b60200101906001600160f81b031916908160001a9053506001016137fa565b50949350505050565b60008083600681111561393c5761393c613ebb565b0361397b5760015b82600681111561395657613956613ebb565b1480613974575060055b82600681111561397257613972613ebb565b145b90506139ff565b600183600681111561398f5761398f613ebb565b0361399b576002613944565b60028360068111156139af576139af613ebb565b036139bb576003613944565b60038360068111156139cf576139cf613ebb565b036139db576004613944565b60048360068111156139ef576139ef613ebb565b036139fb576006613960565b5060005b92915050565b60606000826006811115613a1b57613a1b613ebb565b03613a4357505060408051808201909152600781526610dc99585d195960ca1b602082015290565b6001826006811115613a5757613a57613ebb565b03613a81575050604080518082019091526009815268125b951c985b9cda5d60ba1b602082015290565b6002826006811115613a9557613a95613ebb565b03613abf57505060408051808201909152600981526811195b1a5d995c995960ba1b602082015290565b6003826006811115613ad357613ad3613ebb565b03613b0157505060408051808201909152600d81526c145d585b1a5d1e55195cdd1959609a1b602082015290565b6004826006811115613b1557613b15613ebb565b03613b3e575050604080518082019091526008815267105c1c1c9bdd995960c21b602082015290565b6005826006811115613b5257613b52613ebb565b03613b7b57505060408051808201909152600881526714995a9958dd195960c21b602082015290565b6006826006811115613b8f57613b8f613ebb565b03613bb857505060408051808201909152600881526710dbdb9cdd5b595960c21b602082015290565b50506040805180820190915260078152662ab735b737bbb760c91b602082015290565b600082815260056020908152604091829020825160c081018452858152338184015283518085018552600e81526d10905510d217d491529150d5115160921b818501528185015292519092916060830191613c3891869101614d68565b60408051808303601f19018152918152908252426020808401919091528151808201835260008082529383015284546001808201875595845292819020845160069094020192835583015193820180546001600160a01b0319166001600160a01b0390951694909417909355918101519091906002820190613cba9082614780565b5060608201516003820190613ccf9082614780565b506080820151600482015560a08201516005820190613cee9082614780565b5050505050565b600060208284031215613d0757600080fd5b5035919050565b60005b83811015613d29578181015183820152602001613d11565b50506000910152565b60008151808452613d4a816020860160208601613d0e565b601f01601f19169290920160200192915050565b6000602082016020835280845180835260408501915060408160051b86010192506020860160005b82811015613e1157603f19878603018452815180518652602081015160c06020880152613db660c0880182613d32565b905060408201518782036040890152613dcf8282613d32565b6060848101516001600160a01b0316908a0152608080850151908a015260a0938401511515939098019290925250506020938401939190910190600101613d86565b50929695505050505050565b8781526001600160a01b0387811660208301528616604082015260e060608201819052600090613e4f90830187613d32565b8281036080840152613e618187613d32565b60a0840195909552505090151560c09091015295945050505050565b80356001600160a01b0381168114613e9457600080fd5b919050565b600060208284031215613eab57600080fd5b613eb482613e7d565b9392505050565b634e487b7160e01b600052602160045260246000fd5b60068110613ee157613ee1613ebb565b9052565b6001600160a01b0387168152613efe6020820187613ed1565b60c060408201526000613f1460c0830187613d32565b8281036060840152613f268187613d32565b9415156080840152505060a00152949350505050565b60008060408385031215613f4f57600080fd5b50508035926020909101359150565b86815260c060208201526000613f7760c0830188613d32565b8281036040840152613f898188613d32565b6001600160a01b0396909616606084015250506080810192909252151560a0909101529392505050565b60008083601f840112613fc557600080fd5b50813567ffffffffffffffff811115613fdd57600080fd5b602083019150836020828501011115613ff557600080fd5b9250929050565b60008060008060008060006080888a03121561401757600080fd5b873567ffffffffffffffff81111561402e57600080fd5b61403a8a828b01613fb3565b90985096505060208801359450604088013567ffffffffffffffff81111561406157600080fd5b61406d8a828b01613fb3565b909550935050606088013567ffffffffffffffff81111561408d57600080fd5b6140998a828b01613fb3565b989b979a50959850939692959293505050565b600080600080600080608087890312156140c557600080fd5b863595506020870135600781106140db57600080fd5b9450604087013567ffffffffffffffff8111156140f757600080fd5b61410389828a01613fb3565b909550935050606087013567ffffffffffffffff81111561412357600080fd5b61412f89828a01613fb3565b979a9699509497509295939492505050565b634e487b7160e01b600052604160045260246000fd5b60006020828403121561416957600080fd5b813567ffffffffffffffff81111561418057600080fd5b8201601f8101841361419157600080fd5b803567ffffffffffffffff8111156141ab576141ab614141565b604051601f8201601f19908116603f0116810167ffffffffffffffff811182821017156141da576141da614141565b6040528181528282016020018610156141f257600080fd5b81602084016020830137600091810160200191909152949350505050565b602080825282518282018190526000918401906040840190835b8181101561424857835183526020938401939092019160010161422a565b509095945050505050565b6000806000806000806080878903121561426c57600080fd5b61427587613e7d565b95506020870135600681106140db57600080fd5b602081528151602082015260018060a01b03602083015116604082015260018060a01b0360408301511660608201526000606083015160e060808401526142d4610100840182613d32565b90506080840151601f198483030160a08501526142f18282613d32565b91505060a084015160c084015260c0840151151560e08401528091505092915050565b6000806040838503121561432757600080fd5b61433083613e7d565b946020939093013593505050565b6000806000806000806080878903121561435757600080fd5b863595506140db60208801613e7d565b60008060006040848603121561437c57600080fd5b83359250602084013567ffffffffffffffff81111561439a57600080fd5b6143a686828701613fb3565b9497909650939450505050565b6000602082016020835280845180835260408501915060408160051b86010192506020860160005b82811015613e1157603f1987860301845281518051865260018060a01b036020820151166020870152604081015160c0604088015261441d60c0880182613d32565b9050606082015187820360608901526144368282613d32565b9150506080820151608088015260a0820151915086810360a088015261445c8183613d32565b9650505060209384019391909101906001016143db565b60078110613ee157613ee1613ebb565b8b81526001600160a01b038b811660208301528a81166040830152891660608201526144b26080820189614473565b61016060a082015260006144ca610160830189613d32565b8760c084015282810360e08401526144e28188613d32565b90508281036101008401526144f78187613d32565b610120840195909552505061014001529998505050505050505050565b8c81526001600160a01b038c811660208301528b811660408301528a166060820152614543608082018a614473565b61018060a0820152600061455b61018083018a613d32565b8860c084015282810360e08401526145738189613d32565b90508281036101008401526145888188613d32565b91505084610120830152836101408301526145a861016083018415159052565b9d9c50505050505050505050505050565b8681526001600160a01b038616602082015260c0604082018190526000906145e390830187613d32565b82810360608401526145f58187613d32565b905084608084015282810360a084015261460f8185613d32565b9998505050505050505050565b602080825282518282018190526000918401906040840190835b818110156142485783516001600160a01b0316835260209384019390920191600101614636565b60208082526014908201527310985d18da08191bd95cc81b9bdd08195e1a5cdd60621b604082015260600190565b600181811c9082168061469f57607f821691505b6020821081036106b457634e487b7160e01b600052602260045260246000fd5b60208082526026908201527f43616c6c6572206973206e6f742061207265676973746572656420706172746960408201526518da5c185b9d60d21b606082015260800190565b634e487b7160e01b600052601160045260246000fd5b60006001820161472d5761472d614705565b5060010190565b601f82111561477b57806000526020600020601f840160051c8101602085101561475b5750805b601f840160051c820191505b81811015613cee5760008155600101614767565b505050565b815167ffffffffffffffff81111561479a5761479a614141565b6147ae816147a8845461468b565b84614734565b6020601f8211600181146147e257600083156147ca5750848201515b600019600385901b1c1916600184901b178455613cee565b600084815260208120601f198516915b8281101561481257878501518255602094850194600190920191016147f2565b50848210156148305786840151600019600387901b60f8161c191681555b50505050600190811b01905550565b7f42617463682063726561746564207769746820747970653a200000000000000081528284601983013760008382016b0161038bab0b73a34ba3c9d160a51b60198201528351614896816025840160208801613d0e565b0160250195945050505050565b81835281816020850137506000828201602090810191909152601f909101601f19169091010190565b6060815260006148e06060830186886148a3565b6020830194909452506040015292915050565b6e021b932b0ba32b2103130ba31b41d1608d1b81528183600f83013760009101600f01908152919050565b60608152600d60608201526c10905510d217d0d49150551151609a1b608082015260a06020820152600061495560a0830185613d32565b90508260408301529392505050565b6020808252601e908201527f5472616e736665722072657175657374206973206e6f74206163746976650000604082015260600190565b60208082526026908201527f4e6f7420617574686f72697a656420746f20616363657074207468697320747260408201526530b739b332b960d11b606082015260800190565b7f4f776e657273686970207472616e736665727265642066726f6d200000000000815260008351614a1981601b850160208801613d0e565b630103a37960e51b601b918401918201528351614a3d81601f840160208801613d0e565b01601f01949350505050565b73029ba30ba3ab99031b430b733b2b210333937b6960651b815260008351614a78816014850160208801613d0e565b630103a37960e51b6014918401918201528351614a9c816018840160208801613d0e565b01601801949350505050565b60608152600e60608201526d14d510551554d7d554111055115160921b608082015260a06020820152600061495560a0830185613d32565b6020808252602b908201527f4f6e6c7920636f6e7472616374206f776e65722063616e20706572666f726d2060408201526a3a3434b99030b1ba34b7b760a91b606082015260800190565b614b358185613ed1565b604060208201526000614b4c6040830184866148a3565b95945050505050565b7502a3930b739b332b9103932b8bab2b9ba32b2103a37960551b815260008451614b86816016850160208901613d0e565b69017102932b0b9b7b71d160b51b601691840191820152838560208301376000930160200192835250909392505050565b6001600160a01b0385168152606060208201819052600090614bdc90830185876148a3565b905082604083015295945050505050565b6060815260126060820152711514905394d1915497d49154555154d5115160721b608082015260a060208201526000614c2a60a0830185876148a3565b9050826040830152949350505050565b7402a3930b739b332b9103932b532b1ba32b210313c9605d1b815260008451614c6a816015850160208901613d0e565b69017102932b0b9b7b71d160b51b6015918401918201528385601f83013760009301601f0192835250909392505050565b6060815260116060820152701514905394d1915497d491529150d51151607a1b608082015260a060208201526000614c2a60a0830185876148a3565b818103818111156139ff576139ff614705565b634e487b7160e01b600052601260045260246000fd5b600082614d0f57614d0f614cea565b500490565b600082614d2357614d23614cea565b500690565b808201808211156139ff576139ff614705565b634e487b7160e01b600052603260045260246000fd5b80820281158282048414176139ff576139ff614705565b7f42617463682072656a65637465642e20526561736f6e3a200000000000000000815260008251614da0816018850160208701613d0e565b919091016018019291505056fe5472616e7366657220726571756573742063616e63656c6c656420627920726571756573746572af7d759043c544283458526995d5ec4743464ca672b14d3565612ec69ebaa796a264697066735822122061057e182819c652f987494334badd8808aaa62c8714c7a9ca4f5514952f73c164736f6c634300081c0033",
  "linkReferences": {},
  "deployedLinkReferences": {}
}