{
  "_format": "hh-sol-artifact-1",
  "contractName": "SupplyChain",
  "sourceName": "contracts/SupplyChain.sol",
  "abi": [
    {
      "inputs": [],
      "stateMutability": "nonpayable",
      "type": "constructor"
    },
    {
      "anonymous": false,
      "inputs": [
        {
          "indexed": true,
          "internalType": "uint256",
          "name": "batchId",
          "type": "uint256"
        },
        {
          "indexed": true,
          "internalType": "address",
          "name": "actor",
          "type": "address"
        },
        {
          "indexed": false,
          "internalType": "bytes32",
          "name": "action",
          "type": "bytes32"
        },
        {
          "indexed": false,
          "internalType": "bytes32",
          "name": "details",
          "type": "bytes32"
        },
        {
          "indexed": false,
          "internalType": "uint256",
          "name": "timestamp",
          "type": "uint256"
        }
      ],
      "name": "AuditEntry",
      "type": "event"
    },
    {
      "anonymous": false,
      "inputs": [
        {
          "indexed": true,
          "internalType": "uint256",
          "name": "batchId",
          "type": "uint256"
        },
        {
          "indexed": true,
          "internalType": "address",
          "name": "creator",
          "type": "address"
        },
        {
          "indexed": false,
          "internalType": "string",
          "name": "batchType",
          "type": "string"
        },
        {
          "indexed": false,
          "internalType": "uint256",
          "name": "quantity",
          "type": "uint256"
        },
        {
          "indexed": false,
          "internalType": "uint256",
          "name": "timestamp",
          "type": "uint256"
        }
      ],
      "name": "BatchRegistered",
      "type": "event"
    },
    {
      "anonymous": false,
      "inputs": [
        {
          "indexed": true,
          "internalType": "uint256",
          "name": "batchId",
          "type": "uint256"
        },
        {
          "indexed": true,
          "internalType": "enum SupplyChain.BatchStatus",
          "name": "newStatus",
          "type": "uint8"
        },
        {
          "indexed": true,
          "internalType": "address",
          "name": "updatedBy",
          "type": "address"
        },
        {
          "indexed": false,
          "internalType": "uint256",
          "name": "timestamp",
          "type": "uint256"
        }
      ],
      "name": "BatchStatusUpdated",
      "type": "event"
    },
    {
      "anonymous": false,
      "inputs": [
        {
          "indexed": true,
          "internalType": "uint256",
          "name": "batchId",
          "type": "uint256"
        },
        {
          "indexed": true,
          "internalType": "address",
          "name": "previousOwner",
          "type": "address"
        },
        {
          "indexed": true,
          "internalType": "address",
          "name": "newOwner",
          "type": "address"
        },
        {
          "indexed": false,
          "internalType": "uint256",
          "name": "timestamp",
          "type": "uint256"
        }
      ],
      "name": "OwnershipTransferred",
      "type": "event"
    },
    {
      "anonymous": false,
      "inputs": [
        {
          "indexed": true,
          "internalType": "address",
          "name": "participant",
          "type": "address"
        }
      ],
      "name": "ParticipantDeactivated",
      "type": "event"
    },
    {
      "anonymous": false,
      "inputs": [
        {
          "indexed": true,
          "internalType": "address",
          "name": "participant",
          "type": "address"
        },
        {
          "indexed": false,
          "internalType": "enum SupplyChain.ParticipantRole",
          "name": "role",
          "type": "uint8"
        },
        {
          "indexed": false,
          "internalType": "string",
          "name": "name",
          "type": "string"
        }
      ],
      "name": "ParticipantRegistered",
      "type": "event"
    },
    {
      "anonymous": false,
      "inputs": [
        {
          "indexed": true,
          "internalType": "uint256",
          "name": "requestId",
          "type": "uint256"
        },
        {
          "indexed": true,
          "internalType": "uint256",
          "name": "batchId",
          "type": "uint256"
        },
        {
          "indexed": true,
          "internalType": "address",
          "name": "from",
          "type": "address"
        },
        {
          "indexed": false,
          "internalType": "address",
          "name": "to",
          "type": "address"
        },
        {
          "indexed": false,
          "internalType": "uint256",
          "name": "timestamp",
          "type": "uint256"
        }
      ],
      "name": "TransferApproved",
      "type": "event"
    },
    {
      "anonymous": false,
      "inputs": [
        {
          "indexed": true,
          "internalType": "uint256",
          "name": "requestId",
          "type": "uint256"
        },
        {
          "indexed": true,
          "internalType": "uint256",
          "name": "batchId",
          "type": "uint256"
        },
        {
          "indexed": true,
          "internalType": "address",
          "name": "from",
          "type": "address"
        },
        {
          "indexed": false,
          "internalType": "address",
          "name": "to",
          "type": "address"
        },
        {
          "indexed": false,
          "internalType": "string",
          "name": "reason",
          "type": "string"
        },
        {
          "indexed": false,
          "internalType": "uint256",
          "name": "timestamp",
          "type": "uint256"
        }
      ],
      "name": "TransferRejected",
      "type": "event"
    },
    {
      "anonymous": false,
      "inputs": [
        {
          "indexed": true,
          "internalType": "uint256",
          "name": "requestId",
          "type": "uint256"
        },
        {
          "indexed": true,
          "internalType": "uint256",
          "name": "batchId",
          "type": "uint256"
        },
        {
          "indexed": true,
          "internalType": "address",
          "name": "from",
          "type": "address"
        },
        {
          "indexed": false,
          "internalType": "address",
          "name": "to",
          "type": "address"
        },
        {
          "indexed": false,
          "internalType": "string",
          "name": "reason",
          "type": "string"
        },
        {
          "indexed": false,
          "internalType": "uint256",
          "name": "timestamp",
          "type": "uint256"
        }
      ],
      "name": "TransferRequested",
      "type": "event"
    },
    {
      "inputs": [
        {
          "internalType": "uint256",
          "name": "requestId",
          "type": "uint256"
        }
      ],
      "name": "acceptTransfer",
      "outputs": [],
      "stateMutability": "nonpayable",
      "type": "function"
    },
    {
      "inputs": [
        {
          "internalType": "uint256",
          "name": "",
          "type": "uint256"
        }
      ],
      "name": "activePendingRequests",
      "outputs": [
        {
          "internalType": "uint256",
          "name": "",
          "type": "uint256"
        }
      ],
      "stateMutability": "view",
      "type": "function"
    },
    {
      "inputs": [
        {
          "internalType": "uint256",
          "name": "",
          "type": "uint256"
        },
        {
          "internalType": "uint256",
          "name": "",
          "type": "uint256"
        }
      ],
      "name": "batchAuditTrail",
      "outputs": [
        {
          "internalType": "uint256",
          "name": "batchId",
          "type": "uint256"
        },
        {
          "internalType": "address",
          "name": "actor",
          "type": "address"
        },
        {
          "internalType": "bytes32",
          "name": "action",
          "type": "bytes32"
        },
        {
          "internalType": "bytes32",
          "name": "details",
          "type": "bytes32"
        },
        {
          "internalType": "uint256",
          "name": "timestamp",
          "type": "uint256"
        },
        {
          "internalType": "bytes32",
          "name": "locationData",
          "type": "bytes32"
        }
      ],
      "stateMutability": "view",
      "type": "function"
    },
    {
      "inputs": [
        {
          "internalType": "uint256",
          "name": "",
          "type": "uint256"
        }
      ],
      "name": "batches",
      "outputs": [
        {
          "internalType": "uint256",
          "name": "id",
          "type": "uint256"
        },
        {
          "internalType": "address",
          "name": "creator",
          "type": "address"
        },
        {
          "internalType": "address",
          "name": "currentOwner",
          "type": "address"
        },
        {
          "internalType": "address",
          "name": "pendingOwner",
          "type": "address"
        },
        {
          "internalType": "enum SupplyChain.BatchStatus",
          "name": "status",
          "type": "uint8"
        },
        {
          "internalType": "string",
          "name": "batchType",
          "type": "string"
        },
        {
          "internalType": "uint256",
          "name": "quantity",
          "type": "uint256"
        },
        {
          "internalType": "string",
          "name": "originLocation",
          "type": "string"
        },
        {
          "internalType": "string",
          "name": "metadataURI",
          "type": "string"
        },
        {
          "internalType": "uint256",
          "name": "createdAt",
          "type": "uint256"
        },
        {
          "internalType": "uint256",
          "name": "updatedAt",
          "type": "uint256"
        },
        {
          "internalType": "bool",
          "name": "exists",
          "type": "bool"
        }
      ],
      "stateMutability": "view",
      "type": "function"
    },
    {
      "inputs": [
        {
          "internalType": "uint256",
          "name": "requestId",
          "type": "uint256"
        }
      ],
      "name": "cancelTransfer",
      "outputs": [],
      "stateMutability": "nonpayable",
      "type": "function"
    },
    {
      "inputs": [],
      "name": "contractOwner",
      "outputs": [
        {
          "internalType": "address",
          "name": "",
          "type": "address"
        }
      ],
      "stateMutability": "view",
      "type": "function"
    },
    {
      "inputs": [
        {
          "internalType": "address",
          "name": "participant",
          "type": "address"
        }
      ],
      "name": "deactivateParticipant",
      "outputs": [],
      "stateMutability": "nonpayable",
      "type": "function"
    },
    {
      "inputs": [
        {
          "internalType": "uint256",
          "name": "batchId",
          "type": "uint256"
        }
      ],
      "name": "getActivePendingRequest",
      "outputs": [
        {
          "components": [
            {
              "internalType": "uint256",
              "name": "batchId",
              "type": "uint256"
            },
            {
              "internalType": "address",
              "name": "from",
              "type": "address"
            },
            {
              "internalType": "address",
              "name": "to",
              "type": "address"
            },
            {
              "internalType": "string",
              "name": "reason",
              "type": "string"
            },
            {
              "internalType": "string",
              "name": "transportDetails",
              "type": "string"
            },
            {
              "internalType": "uint256",
              "name": "requestedAt",
              "type": "uint256"
            },
            {
              "internalType": "bool",
              "name": "isActive",
              "type": "bool"
            }
          ],
          "internalType": "struct SupplyChain.TransferRequest",
          "name": "",
          "type": "tuple"
        }
      ],
      "stateMutability": "view",
      "type": "function"
    },
    {
      "inputs": [
        {
          "internalType": "uint256",
          "name": "batchId",
          "type": "uint256"
        }
      ],
      "name": "getBatchAuditTrail",
      "outputs": [
        {
          "components": [
            {
              "internalType": "uint256",
              "name": "batchId",
              "type": "uint256"
            },
            {
              "internalType": "address",
              "name": "actor",
              "type": "address"
            },
            {
              "internalType": "bytes32",
              "name": "action",
              "type": "bytes32"
            },
            {
              "internalType": "bytes32",
              "name": "details",
              "type": "bytes32"
            },
            {
              "internalType": "uint256",
              "name": "timestamp",
              "type": "uint256"
            },
            {
              "internalType": "bytes32",
              "name": "locationData",
              "type": "bytes32"
            }
          ],
          "internalType": "struct SupplyChain.AuditTrail[]",
          "name": "",
          "type": "tuple[]"
        }
      ],
      "stateMutability": "view",
      "type": "function"
    },
    {
      "inputs": [
        {
          "internalType": "uint256",
          "name": "batchId",
          "type": "uint256"
        }
      ],
      "name": "getBatchDetails",
      "outputs": [
        {
          "internalType": "uint256",
          "name": "id",
          "type": "uint256"
        },
        {
          "internalType": "address",
          "name": "creator",
          "type": "address"
        },
        {
          "internalType": "address",
          "name": "currentOwner",
          "type": "address"
        },
        {
          "internalType": "address",
          "name": "pendingOwner",
          "type": "address"
        },
        {
          "internalType": "enum SupplyChain.BatchStatus",
          "name": "status",
          "type": "uint8"
        },
        {
          "internalType": "string",
          "name": "batchType",
          "type": "string"
        },
        {
          "internalType": "uint256",
          "name": "quantity",
          "type": "uint256"
        },
        {
          "internalType": "string",
          "name": "originLocation",
          "type": "string"
        },
        {
          "internalType": "string",
          "name": "metadataURI",
          "type": "string"
        },
        {
          "internalType": "uint256",
          "name": "createdAt",
          "type": "uint256"
        },
        {
          "internalType": "uint256",
          "name": "updatedAt",
          "type": "uint256"
        }
      ],
      "stateMutability": "view",
      "type": "function"
    },
    {
      "inputs": [
        {
          "internalType": "uint256",
          "name": "batchId",
          "type": "uint256"
        }
      ],
      "name": "getOwnershipHistory",
      "outputs": [
        {
          "internalType": "address[]",
          "name": "",
          "type": "address[]"
        }
      ],
      "stateMutability": "view",
      "type": "function"
    },
    {
      "inputs": [],
      "name": "getTotalBatches",
      "outputs": [
        {
          "internalType": "uint256",
          "name": "",
          "type": "uint256"
        }
      ],
      "stateMutability": "view",
      "type": "function"
    },
    {
      "inputs": [
        {
          "internalType": "address",
          "name": "participant",
          "type": "address"
        }
      ],
      "name": "isValidParticipant",
      "outputs": [
        {
          "internalType": "bool",
          "name": "",
          "type": "bool"
        }
      ],
      "stateMutability": "view",
      "type": "function"
    },
    {
      "inputs": [
        {
          "internalType": "uint256",
          "name": "",
          "type": "uint256"
        },
        {
          "internalType": "uint256",
          "name": "",
          "type": "uint256"
        }
      ],
      "name": "ownershipHistory",
      "outputs": [
        {
          "internalType": "address",
          "name": "",
          "type": "address"
        }
      ],
      "stateMutability": "view",
      "type": "function"
    },
    {
      "inputs": [
        {
          "internalType": "address",
          "name": "",
          "type": "address"
        }
      ],
      "name": "participants",
      "outputs": [
        {
          "internalType": "address",
          "name": "participantAddress",
          "type": "address"
        },
        {
          "internalType": "enum SupplyChain.ParticipantRole",
          "name": "role",
          "type": "uint8"
        },
        {
          "internalType": "string",
          "name": "name",
          "type": "string"
        },
        {
          "internalType": "string",
          "name": "location",
          "type": "string"
        },
        {
          "internalType": "bool",
          "name": "isActive",
          "type": "bool"
        },
        {
          "internalType": "uint256",
          "name": "registeredAt",
          "type": "uint256"
        }
      ],
      "stateMutability": "view",
      "type": "function"
    },
    {
      "inputs": [
        {
          "internalType": "string",
          "name": "batchType",
          "type": "string"
        },
        {
          "internalType": "uint256",
          "name": "quantity",
          "type": "uint256"
        },
        {
          "internalType": "string",
          "name": "originLocation",
          "type": "string"
        },
        {
          "internalType": "string",
          "name": "metadataURI",
          "type": "string"
        }
      ],
      "name": "registerBatch",
      "outputs": [
        {
          "internalType": "uint256",
          "name": "batchId",
          "type": "uint256"
        }
      ],
      "stateMutability": "nonpayable",
      "type": "function"
    },
    {
      "inputs": [
        {
          "internalType": "address",
          "name": "participant",
          "type": "address"
        },
        {
          "internalType": "enum SupplyChain.ParticipantRole",
          "name": "role",
          "type": "uint8"
        },
        {
          "internalType": "string",
          "name": "name",
          "type": "string"
        },
        {
          "internalType": "string",
          "name": "location",
          "type": "string"
        }
      ],
      "name": "registerParticipant",
      "outputs": [],
      "stateMutability": "nonpayable",
      "type": "function"
    },
    {
      "inputs": [
        {
          "internalType": "uint256",
          "name": "requestId",
          "type": "uint256"
        },
        {
          "internalType": "string",
          "name": "rejectionReason",
          "type": "string"
        }
      ],
      "name": "rejectTransfer",
      "outputs": [],
      "stateMutability": "nonpayable",
      "type": "function"
    },
    {
      "inputs": [
        {
          "internalType": "uint256",
          "name": "batchId",
          "type": "uint256"
        },
        {
          "internalType": "address",
          "name": "newOwner",
          "type": "address"
        },
        {
          "internalType": "string",
          "name": "reason",
          "type": "string"
        },
        {
          "internalType": "string",
          "name": "transportDetails",
          "type": "string"
        }
      ],
      "name": "requestTransfer",
      "outputs": [
        {
          "internalType": "uint256",
          "name": "requestId",
          "type": "uint256"
        }
      ],
      "stateMutability": "nonpayable",
      "type": "function"
    },
    {
      "inputs": [
        {
          "internalType": "uint256",
          "name": "",
          "type": "uint256"
        }
      ],
      "name": "transferRequests",
      "outputs": [
        {
          "internalType": "uint256",
          "name": "batchId",
          "type": "uint256"
        },
        {
          "internalType": "address",
          "name": "from",
          "type": "address"
        },
        {
          "internalType": "address",
          "name": "to",
          "type": "address"
        },
        {
          "internalType": "string",
          "name": "reason",
          "type": "string"
        },
        {
          "internalType": "string",
          "name": "transportDetails",
          "type": "string"
        },
        {
          "internalType": "uint256",
          "name": "requestedAt",
          "type": "uint256"
        },
        {
          "internalType": "bool",
          "name": "isActive",
          "type": "bool"
        }
      ],
      "stateMutability": "view",
      "type": "function"
    },
    {
      "inputs": [
        {
          "internalType": "uint256",
          "name": "batchId",
          "type": "uint256"
        },
        {
          "internalType": "enum SupplyChain.BatchStatus",
          "name": "newStatus",
          "type": "uint8"
        },
        {
          "internalType": "string",
          "name": "",
          "type": "string"
        }
      ],
      "name": "updateStatus",
      "outputs": [],
      "stateMutability": "nonpayable",
      "type": "function"
    }
  ],
  "bytecode": "0x608060405260016006556001600755348015601957600080fd5b50600880546001600160a01b031916331790556136198061003b6000396000f3fe608060405234801561001057600080fd5b50600436106101375760003560e01c806373247a03116100b8578063c9cf2adc1161007c578063c9cf2adc14610319578063ce606ee014610344578063de97b81c14610357578063e3da5f031461036a578063e561dddc146103b2578063f1dbaccb146103ba57600080fd5b806373247a0314610252578063781f0b72146102725780639d47dcc014610285578063b32c4d8d146102af578063c37d46f9146102da57600080fd5b806348f10184116100ff57806348f10184146101e657806359078473146101f957806359caecb51461021957806364a696c61461022c5780636b43c9e41461023f57600080fd5b806303486c401461013c57806309e69ede1461016b5780630efb58891461019057806311ae0b8f146101be578063274fae7c146101d1575b600080fd5b61014f61014a366004612c6c565b6103da565b6040516101629796959493929190612ccb565b60405180910390f35b61017e610179366004612d47565b610537565b60405161016296959493929190612d93565b6101b061019e366004612c6c565b60056020526000908152604090205481565b604051908152602001610162565b6101b06101cc366004612e33565b610691565b6101e46101df366004612c6c565b610b76565b005b6101e46101f4366004612ee3565b61105f565b61020c610207366004612c6c565b611373565b6040516101629190612f7f565b6101e4610227366004612c6c565b61159c565b6101b061023a36600461300a565b6117e9565b6101e461024d366004613033565b611dc6565b610265610260366004612c6c565b612041565b604051610162919061307f565b6101e4610280366004613102565b61211d565b610298610293366004612c6c565b6124c9565b6040516101629b9a99989796959493929190613172565b6102c26102bd366004612c6c565b612748565b6040516101629c9b9a99989796959493929190613203565b6103096102e8366004612d47565b6001600160a01b031660009081526001602052604090206003015460ff1690565b6040519015158152602001610162565b61032c6103273660046132a8565b612956565b6040516001600160a01b039091168152602001610162565b60085461032c906001600160a01b031681565b6101e4610365366004612d47565b61298e565b61037d6103783660046132a8565b612a79565b604080519687526001600160a01b039095166020870152938501929092526060840152608083015260a082015260c001610162565b6101b0612ad7565b6103cd6103c8366004612c6c565b612aed565b60405161016291906132ca565b6002602081905260009182526040909120805460018201549282015460038301805492946001600160a01b03908116949216926104169061330b565b80601f01602080910402602001604051908101604052809291908181526020018280546104429061330b565b801561048f5780601f106104645761010080835404028352916020019161048f565b820191906000526020600020905b81548152906001019060200180831161047257829003601f168201915b5050505050908060040180546104a49061330b565b80601f01602080910402602001604051908101604052809291908181526020018280546104d09061330b565b801561051d5780601f106104f25761010080835404028352916020019161051d565b820191906000526020600020905b81548152906001019060200180831161050057829003601f168201915b50505050600583015460069093015491929160ff16905087565b6001602081905260009182526040909120805491810180546001600160a01b03841693600160a01b900460ff169291906105709061330b565b80601f016020809104026020016040519081016040528092919081815260200182805461059c9061330b565b80156105e95780601f106105be576101008083540402835291602001916105e9565b820191906000526020600020905b8154815290600101906020018083116105cc57829003601f168201915b5050505050908060020180546105fe9061330b565b80601f016020809104026020016040519081016040528092919081815260200182805461062a9061330b565b80156106775780601f1061064c57610100808354040283529160200191610677565b820191906000526020600020905b81548152906001019060200180831161065a57829003601f168201915b505050506003830154600490930154919260ff1691905086565b3360009081526001602052604081206003015460ff166106cc5760405162461bcd60e51b81526004016106c39061333f565b60405180910390fd5b866107035760405162461bcd60e51b81526020600482015260076024820152664e6f207479706560c81b60448201526064016106c3565b600086116107415760405162461bcd60e51b815260206004820152600b60248201526a4e6f207175616e7469747960a81b60448201526064016106c3565b8361077a5760405162461bcd60e51b815260206004820152600960248201526827379037b934b3b4b760b91b60448201526064016106c3565b6006805490600061078a8361337d565b909155506040805161018081018252828152336020820181905291810191909152600060608201819052919250906080820190815260200189898080601f016020809104026020016040519081016040528093929190818152602001838380828437600092019190915250505090825250602080820189905260408051601f89018390048302810183018252888152920191908890889081908401838280828437600092019190915250505090825250604080516020601f870181900481028201810190925285815291810191908690869081908401838280828437600092018290525093855250504260208085018290526040808601929092526001606095860181905287855284825293829020865181559086015193810180546001600160a01b039586166001600160a01b0319918216179091559186015160028201805491861691841691909117905593850151600385018054919094169181168217845560808601519392506001600160a81b03191617600160a01b83600681111561091657610916612d69565b021790555060a0820151600482019061092f90826133fb565b5060c0820151600582015560e0820151600682019061094e90826133fb565b50610100820151600782019061096490826133fb565b506101208201518160080155610140820151816009015561016082015181600a0160006101000a81548160ff02191690831515021790555090505060046000828152602001908152602001600020339080600181540180825580915050600190039060005260206000200160009091909190916101000a8154816001600160a01b0302191690836001600160a01b03160217905550600360008281526020019081526020016000206040518060c00160405280838152602001336001600160a01b031681526020016c10905510d217d0d49150551151609a1b81526020016000801b81526020014281526020016000801b81525090806001815401808255809150506001900390600052602060002090600602016000909190919091506000820151816000015560208201518160010160006101000a8154816001600160a01b0302191690836001600160a01b0316021790555060408201518160020155606082015181600301556080820151816004015560a082015181600501555050336001600160a01b0316817fddfb2105d99dc623fe7d3f9f277c4f458e4db5b85f6e688a080256f360d285e48a8a8a42604051610b2294939291906134e3565b60405180910390a3604080516c10905510d217d0d49150551151609a1b81526000602082015242818301529051339183916000805160206135c48339815191529181900360600190a3979650505050505050565b600081815260026020526040902060060154819060ff16610ba95760405162461bcd60e51b81526004016106c39061350a565b600081815260026020819052604090912001546001600160a01b03163314610bfd5760405162461bcd60e51b815260206004820152600760248201526609cde40c2eae8d60cb1b60448201526064016106c3565b3360009081526001602052604090206003015460ff16610c2f5760405162461bcd60e51b81526004016106c39061333f565b60008281526002602090815260408083208054845291839052909120600a81015460ff16610c6f5760405162461bcd60e51b81526004016106c39061352e565b600182015460028201546001600160a01b03908116911614610cc35760405162461bcd60e51b815260206004820152600d60248201526c13dddb995c8818da185b99d959609a1b60448201526064016106c3565b600282015460038201546001600160a01b03908116911614610d195760405162461bcd60e51b815260206004820152600f60248201526e14195b991a5b99c818da185b99d959608a1b60448201526064016106c3565b60008160020160009054906101000a90046001600160a01b031690506000836000015490508360020160009054906101000a90046001600160a01b03168360020160006101000a8154816001600160a01b0302191690836001600160a01b0316021790555060008360030160006101000a8154816001600160a01b0302191690836001600160a01b03160217905550428360090181905550600460008281526020019081526020016000208460020160009054906101000a90046001600160a01b03169080600181540180825580915050600190039060005260206000200160009091909190916101000a8154816001600160a01b0302191690836001600160a01b0316021790555060008460060160006101000a81548160ff02191690831515021790555060006005600083815260200190815260200160002081905550600360008281526020019081526020016000206040518060c00160405280838152602001336001600160a01b031681526020016a5452414e534645525f4f4b60a81b81526020018660020160009054906101000a90046001600160a01b03166001600160a01b031660001b81526020014281526020016000801b81525090806001815401808255809150506001900390600052602060002090600602016000909190919091506000820151816000015560208201518160010160006101000a8154816001600160a01b0302191690836001600160a01b0316021790555060408201518160020155606082015181600301556080820151816004015560a082015181600501555050816001600160a01b031681877f798ceef017f7abdb4cb91bdada993161919466973c34181364d44c143b8aa4228760020160009054906101000a90046001600160a01b031642604051610fc79291906001600160a01b03929092168252602082015260400190565b60405180910390a460028401546040514281526001600160a01b039182169184169083907f06f354ec7b9d2ca4e029f73ccb9119943a48c3295704dd66ca8beda0c7bae33f9060200160405180910390a4604080516a5452414e534645525f4f4b60a81b81526000602082015242818301529051339183916000805160206135c48339815191529181900360600190a3505050505050565b6008546001600160a01b031633146110a65760405162461bcd60e51b815260206004820152600a6024820152694f776e6572206f6e6c7960b01b60448201526064016106c3565b6001600160a01b0386166110eb5760405162461bcd60e51b815260206004820152600c60248201526b24b73b30b634b21030b2323960a11b60448201526064016106c3565b60008560058111156110ff576110ff612d69565b0361113b5760405162461bcd60e51b815260206004820152600c60248201526b496e76616c696420726f6c6560a01b60448201526064016106c3565b826111725760405162461bcd60e51b81526020600482015260076024820152664e6f206e616d6560c81b60448201526064016106c3565b6001600160a01b03861660009081526001602052604090206003015460ff16156111c75760405162461bcd60e51b815260206004820152600660248201526545786973747360d01b60448201526064016106c3565b6040518060c00160405280876001600160a01b031681526020018660058111156111f3576111f3612d69565b815260200185858080601f016020809104026020016040519081016040528093929190818152602001838380828437600092019190915250505090825250604080516020601f8601819004810282018101909252848152918101919085908590819084018382808284376000920182905250938552505060016020808501829052426040958601526001600160a01b03808d168552918152939092208451815493166001600160a01b031984168117825593850151909390928492506001600160a81b03191617600160a01b8360058111156112d1576112d1612d69565b0217905550604082015160018201906112ea90826133fb565b50606082015160028201906112ff90826133fb565b50608082015160038201805460ff191691151591909117905560a0909101516004909101556040516001600160a01b038716907fe3564c470dc79d88d220de1a64bc335ec0a928450ce631293691bba84dd9a6119061136390889088908890613550565b60405180910390a2505050505050565b6040805160e081018252600080825260208083018290528284018290526060808401819052608084015260a0830182905260c0830182905284825281905291909120600a0154829060ff166113da5760405162461bcd60e51b81526004016106c39061352e565b600083815260056020526040812054908190036114095760405162461bcd60e51b81526004016106c39061350a565b600081815260026020818152604092839020835160e0810185528154815260018201546001600160a01b039081169382019390935292810154909116928201929092526003820180549192916060840191906114649061330b565b80601f01602080910402602001604051908101604052809291908181526020018280546114909061330b565b80156114dd5780601f106114b2576101008083540402835291602001916114dd565b820191906000526020600020905b8154815290600101906020018083116114c057829003601f168201915b505050505081526020016004820180546114f69061330b565b80601f01602080910402602001604051908101604052809291908181526020018280546115229061330b565b801561156f5780601f106115445761010080835404028352916020019161156f565b820191906000526020600020905b81548152906001019060200180831161155257829003601f168201915b50505091835250506005820154602082015260069091015460ff1615156040909101529250505b50919050565b6000818152600260205260409020600681015460ff166115ce5760405162461bcd60e51b81526004016106c39061350a565b60018101546001600160a01b0316331461161a5760405162461bcd60e51b815260206004820152600d60248201526c2737ba103932b8bab2b9ba32b960991b60448201526064016106c3565b600080600083600001548152602001908152602001600020905060008260000154905060008260030160006101000a8154816001600160a01b0302191690836001600160a01b0316021790555042826009018190555060008360060160006101000a81548160ff02191690831515021790555060006005600083815260200190815260200160002081905550600360008281526020019081526020016000206040518060c00160405280838152602001336001600160a01b031681526020016b1514905394d1915497d0d61360a21b81526020016000801b81526020014281526020016000801b81525090806001815401808255809150506001900390600052602060002090600602016000909190919091506000820151816000015560208201518160010160006101000a8154816001600160a01b0302191690836001600160a01b0316021790555060408201518160020155606082015181600301556080820151816004015560a082015181600501555050336001600160a01b0316816000805160206135c48339815191526000801b426040516117db9291906b1514905394d1915497d0d61360a21b81526020810192909252604082015260600190565b60405180910390a350505050565b6000868152602081905260408120600a0154879060ff1661181c5760405162461bcd60e51b81526004016106c39061352e565b60008881526020819052604090206002015488906001600160a01b031633146118735760405162461bcd60e51b81526020600482015260096024820152682737ba1037bbb732b960b91b60448201526064016106c3565b3360009081526001602052604090206003015460ff166118a55760405162461bcd60e51b81526004016106c39061333f565b6001600160a01b0388166118ea5760405162461bcd60e51b815260206004820152600c60248201526b24b73b30b634b21030b2323960a11b60448201526064016106c3565b336001600160a01b038916036119325760405162461bcd60e51b815260206004820152600d60248201526c29b2b633103a3930b739b332b960991b60448201526064016106c3565b6001600160a01b03881660009081526001602052604090206003015460ff1661196d5760405162461bcd60e51b81526004016106c39061333f565b600089815260056020526040902054156119b35760405162461bcd60e51b815260206004820152600760248201526650656e64696e6760c81b60448201526064016106c3565b856119ec5760405162461bcd60e51b81526020600482015260096024820152682737903932b0b9b7b760b91b60448201526064016106c3565b600089815260208190526040902060056003820154600160a01b900460ff166006811115611a1c57611a1c612d69565b14158015611a4a575060066003820154600160a01b900460ff166006811115611a4757611a47612d69565b14155b611a875760405162461bcd60e51b815260206004820152600e60248201526d496e76616c69642073746174757360901b60448201526064016106c3565b60078054906000611a978361337d565b9190505593506040518060e001604052808b8152602001336001600160a01b031681526020018a6001600160a01b0316815260200189898080601f016020809104026020016040519081016040528093929190818152602001838380828437600092019190915250505090825250604080516020601f8a0181900481028201810190925288815291810191908990899081908401838280828437600092018290525093855250504260208085019190915260016040948501819052898452600280835293859020865181559186015190820180546001600160a01b03199081166001600160a01b039384161790915594860151938201805490951693169290921790925560608301519091506003820190611bb290826133fb565b5060808201516004820190611bc790826133fb565b5060a0820151816005015560c08201518160060160006101000a81548160ff021916908315150217905550905050888160030160006101000a8154816001600160a01b0302191690836001600160a01b0316021790555042816009018190555083600560008c815260200190815260200160002081905550600360008b81526020019081526020016000206040518060c001604052808c8152602001336001600160a01b031681526020016b5452414e534645525f52455160a01b81526020018b6001600160a01b031660001b81526020014281526020016000801b81525090806001815401808255809150506001900390600052602060002090600602016000909190919091506000820151816000015560208201518160010160006101000a8154816001600160a01b0302191690836001600160a01b0316021790555060408201518160020155606082015181600301556080820151816004015560a082015181600501555050336001600160a01b03168a857f1d83ee25602fc00704f24231d78318737a7871f05bc7f72246a61885e86687948c8c8c42604051611d71949392919061357a565b60405180910390a4604080516b5452414e534645525f52455160a01b8152600060208201524281830152905133918c916000805160206135c48339815191529181900360600190a35050509695505050505050565b600083815260026020526040902060060154839060ff16611df95760405162461bcd60e51b81526004016106c39061350a565b600081815260026020819052604090912001546001600160a01b03163314611e4d5760405162461bcd60e51b815260206004820152600760248201526609cde40c2eae8d60cb1b60448201526064016106c3565b3360009081526001602052604090206003015460ff16611e7f5760405162461bcd60e51b81526004016106c39061333f565b6000848152600260209081526040808320805484529183905290912083611ed45760405162461bcd60e51b81526020600482015260096024820152682737903932b0b9b7b760b91b60448201526064016106c3565b8154600382810180546001600160a01b031990811690915542600985018190556006808701805460ff191690556000858152600560208181526040808420849055878252808420815160c0810183528a8152338185019081526b2a2920a729a322a92fa922a560a11b82850190815260608301888152608084018b815260a085018a8152865460018181018955978c5298909a20945197909a0290930195865590518584018054909b166001600160a01b0391821617909a5551600280860191909155905199840199909955945160048301559251910155908701549387015490519383169385938c937ff13db4e24951bcf957c8e147d0946910916279dd1ae6206c56fe414de48c7de893611ff0939216918d918d9161357a565b60405180910390a4604080516b2a2920a729a322a92fa922a560a11b81526000602082015242818301529051339183916000805160206135c48339815191529181900360600190a350505050505050565b6000818152602081905260409020600a0154606090829060ff166120775760405162461bcd60e51b81526004016106c39061352e565b600083815260036020908152604080832080548251818502810185019093528083529193909284015b828210156121115760008481526020908190206040805160c08101825260068602909201805483526001808201546001600160a01b03168486015260028201549284019290925260038101546060840152600481015460808401526005015460a083015290835290920191016120a0565b50505050915050919050565b6000848152602081905260409020600a0154849060ff166121505760405162461bcd60e51b81526004016106c39061352e565b60008581526020819052604090206002015485906001600160a01b03163314806121a45750600433600090815260016020526040902054600160a01b900460ff1660058111156121a2576121a2612d69565b145b6121dc5760405162461bcd60e51b81526020600482015260096024820152684e6f2061636365737360b81b60448201526064016106c3565b60008681526020819052604090206003810154600160a01b900460ff166122038188612b8e565b6122445760405162461bcd60e51b815260206004820152601260248201527124b73b30b634b2103a3930b739b4ba34b7b760711b60448201526064016106c3565b60038201805488919060ff60a01b1916600160a01b83600681111561226b5761226b612d69565b0217905550428260090181905550600360008981526020019081526020016000206040518060c001604052808a8152602001336001600160a01b031681526020016d14d510551554d7d554111055115160921b81526020018960068111156122d5576122d5612d69565b8152426020808301919091526000604092830181905284546001808201875595825290829020845160069283029091019081559184015194820180546001600160a01b0319166001600160a01b0390961695909517909455908201516002820155606082015160038201556080820151600482015560a0909101516005909101553390889081111561236957612369612d69565b897ff240b0f1c1727be3f30c3f3a006e240add82a15a50d426127694d96e5a26a4034260405161239b91815260200190565b60405180910390a433886000805160206135c48339815191528960068111156123c6576123c6612d69565b604080516d14d510551554d7d554111055115160921b81526020810192909252429082015260600160405180910390a3600587600681111561240a5761240a612d69565b036124bf576000888152600360208181526040808420815160c0810183528d8152338185019081526d10905510d217d491529150d5115160921b93820193845260608201878152426080840190815260a08401898152855460018082018855968b529790992093516006909702909301958655905192850180546001600160a01b0319166001600160a01b03909416939093179092559151600284015551928201929092559051600482015590516005909101555b5050505050505050565b6000806000806000606060006060806000808b600080828152602001908152602001600020600a0160009054906101000a900460ff1661251b5760405162461bcd60e51b81526004016106c39061352e565b60008d815260208190526040902080546001820154600283015460038401546005850154600886015460098701546004880180546001600160a01b039788169796871696861695600160a01b900460ff16949193919260068b019260078c019290919086906125899061330b565b80601f01602080910402602001604051908101604052809291908181526020018280546125b59061330b565b80156126025780601f106125d757610100808354040283529160200191612602565b820191906000526020600020905b8154815290600101906020018083116125e557829003601f168201915b505050505095508380546126159061330b565b80601f01602080910402602001604051908101604052809291908181526020018280546126419061330b565b801561268e5780601f106126635761010080835404028352916020019161268e565b820191906000526020600020905b81548152906001019060200180831161267157829003601f168201915b505050505093508280546126a19061330b565b80601f01602080910402602001604051908101604052809291908181526020018280546126cd9061330b565b801561271a5780601f106126ef5761010080835404028352916020019161271a565b820191906000526020600020905b8154815290600101906020018083116126fd57829003601f168201915b505050505092509c509c509c509c509c509c509c509c509c509c509c50505091939597999b90929496989a50565b6000602081905290815260409020805460018201546002830154600384015460048501805494956001600160a01b039485169593851694831693600160a01b90930460ff169290919061279a9061330b565b80601f01602080910402602001604051908101604052809291908181526020018280546127c69061330b565b80156128135780601f106127e857610100808354040283529160200191612813565b820191906000526020600020905b8154815290600101906020018083116127f657829003601f168201915b50505050509080600501549080600601805461282e9061330b565b80601f016020809104026020016040519081016040528092919081815260200182805461285a9061330b565b80156128a75780601f1061287c576101008083540402835291602001916128a7565b820191906000526020600020905b81548152906001019060200180831161288a57829003601f168201915b5050505050908060070180546128bc9061330b565b80601f01602080910402602001604051908101604052809291908181526020018280546128e89061330b565b80156129355780601f1061290a57610100808354040283529160200191612935565b820191906000526020600020905b81548152906001019060200180831161291857829003601f168201915b5050505060088301546009840154600a909401549293909290915060ff168c565b6004602052816000526040600020818154811061297257600080fd5b6000918252602090912001546001600160a01b03169150829050565b6008546001600160a01b031633146129d55760405162461bcd60e51b815260206004820152600a6024820152694f776e6572206f6e6c7960b01b60448201526064016106c3565b6001600160a01b03811660009081526001602052604090206003015460ff16612a2d5760405162461bcd60e51b815260206004820152600a6024820152694e6f742061637469766560b01b60448201526064016106c3565b6001600160a01b038116600081815260016020526040808220600301805460ff19169055517fb360dc71519dbfb9b9a78951735305a652a439bb4cd8884a08a8968d816d72fa9190a250565b60036020528160005260406000208181548110612a9557600080fd5b60009182526020909120600690910201805460018201546002830154600384015460048501546005909501549396506001600160a01b03909216945092909186565b60006001600654612ae891906135b0565b905090565b6000818152602081905260409020600a0154606090829060ff16612b235760405162461bcd60e51b81526004016106c39061352e565b60008381526004602090815260409182902080548351818402810184019094528084529091830182828015612b8157602002820191906000526020600020905b81546001600160a01b03168152600190910190602001808311612b63575b5050505050915050919050565b600080836006811115612ba357612ba3612d69565b03612be25760015b826006811115612bbd57612bbd612d69565b1480612bdb575060055b826006811115612bd957612bd9612d69565b145b9050612c66565b6001836006811115612bf657612bf6612d69565b03612c02576002612bab565b6002836006811115612c1657612c16612d69565b03612c22576003612bab565b6003836006811115612c3657612c36612d69565b03612c42576004612bab565b6004836006811115612c5657612c56612d69565b03612c62576006612bc7565b5060005b92915050565b600060208284031215612c7e57600080fd5b5035919050565b6000815180845260005b81811015612cab57602081850181015186830182015201612c8f565b506000602082860101526020601f19601f83011685010191505092915050565b8781526001600160a01b0387811660208301528616604082015260e060608201819052600090612cfd90830187612c85565b8281036080840152612d0f8187612c85565b60a0840195909552505090151560c09091015295945050505050565b80356001600160a01b0381168114612d4257600080fd5b919050565b600060208284031215612d5957600080fd5b612d6282612d2b565b9392505050565b634e487b7160e01b600052602160045260246000fd5b60068110612d8f57612d8f612d69565b9052565b6001600160a01b0387168152612dac6020820187612d7f565b60c060408201526000612dc260c0830187612c85565b8281036060840152612dd48187612c85565b9415156080840152505060a00152949350505050565b60008083601f840112612dfc57600080fd5b50813567ffffffffffffffff811115612e1457600080fd5b602083019150836020828501011115612e2c57600080fd5b9250929050565b60008060008060008060006080888a031215612e4e57600080fd5b873567ffffffffffffffff811115612e6557600080fd5b612e718a828b01612dea565b90985096505060208801359450604088013567ffffffffffffffff811115612e9857600080fd5b612ea48a828b01612dea565b909550935050606088013567ffffffffffffffff811115612ec457600080fd5b612ed08a828b01612dea565b989b979a50959850939692959293505050565b60008060008060008060808789031215612efc57600080fd5b612f0587612d2b565b9550602087013560068110612f1957600080fd5b9450604087013567ffffffffffffffff811115612f3557600080fd5b612f4189828a01612dea565b909550935050606087013567ffffffffffffffff811115612f6157600080fd5b612f6d89828a01612dea565b979a9699509497509295939492505050565b602081528151602082015260018060a01b03602083015116604082015260018060a01b0360408301511660608201526000606083015160e06080840152612fca610100840182612c85565b90506080840151601f198483030160a0850152612fe78282612c85565b91505060a084015160c084015260c0840151151560e08401528091505092915050565b6000806000806000806080878903121561302357600080fd5b86359550612f1960208801612d2b565b60008060006040848603121561304857600080fd5b83359250602084013567ffffffffffffffff81111561306657600080fd5b61307286828701612dea565b9497909650939450505050565b602080825282518282018190526000918401906040840190835b818110156130f7578351805184526020808201516001600160a01b03168186015260408083015190860152606080830151908601526080808301519086015260a091820151918501919091529093019260c090920191600101613099565b509095945050505050565b6000806000806060858703121561311857600080fd5b8435935060208501356007811061312e57600080fd5b9250604085013567ffffffffffffffff81111561314a57600080fd5b61315687828801612dea565b95989497509550505050565b60078110612d8f57612d8f612d69565b8b81526001600160a01b038b811660208301528a81166040830152891660608201526131a16080820189613162565b61016060a082015260006131b9610160830189612c85565b8760c084015282810360e08401526131d18188612c85565b90508281036101008401526131e68187612c85565b610120840195909552505061014001529998505050505050505050565b8c81526001600160a01b038c811660208301528b811660408301528a166060820152613232608082018a613162565b61018060a0820152600061324a61018083018a612c85565b8860c084015282810360e08401526132628189612c85565b90508281036101008401526132778188612c85565b915050846101208301528361014083015261329761016083018415159052565b9d9c50505050505050505050505050565b600080604083850312156132bb57600080fd5b50508035926020909101359150565b602080825282518282018190526000918401906040840190835b818110156130f75783516001600160a01b03168352602093840193909201916001016132e4565b600181811c9082168061331f57607f821691505b60208210810361159657634e487b7160e01b600052602260045260246000fd5b6020808252600e908201526d139bdd081c9959da5cdd195c995960921b604082015260600190565b634e487b7160e01b600052601160045260246000fd5b60006001820161338f5761338f613367565b5060010190565b634e487b7160e01b600052604160045260246000fd5b601f8211156133f657806000526020600020601f840160051c810160208510156133d35750805b601f840160051c820191505b818110156133f357600081556001016133df565b50505b505050565b815167ffffffffffffffff81111561341557613415613396565b61342981613423845461330b565b846133ac565b6020601f82116001811461345d57600083156134455750848201515b600019600385901b1c1916600184901b1784556133f3565b600084815260208120601f198516915b8281101561348d578785015182556020948501946001909201910161346d565b50848210156134ab5786840151600019600387901b60f8161c191681555b50505050600190811b01905550565b81835281816020850137506000828201602090810191909152601f909101601f19169091010190565b6060815260006134f76060830186886134ba565b6020830194909452506040015292915050565b6020808252600a9082015269139bc81c995c5d595cdd60b21b604082015260600190565b60208082526008908201526709cde40c4c2e8c6d60c31b604082015260600190565b61355a8185612d7f565b6040602082015260006135716040830184866134ba565b95945050505050565b6001600160a01b038516815260606020820181905260009061359f90830185876134ba565b905082604083015295945050505050565b81810381811115612c6657612c6661336756fe59f9f8e417ec9b223f4895ec465b60b4d47b7cbf7e01bd4fa6e7f44512b04a7fa2646970667358221220307442101d695077faa74e528883954a26fbe57846a95a119ebf13b6155f8b9b64736f6c634300081c0033",
  "linkReferences": {},
  "deployedLinkReferences": {}
}